S10508000132BF
S123083275810B12083D12001B80FBE4F5F0F50A85F00B740FF590120A5D120BA9120C8D68
S1230852540FC5F05400C5F0F50854017003020869120879020875E508540E7003020875D6
S12308721209EF020845220581058105810581E4F5F078FD120C54F608A6F078FD120C54A4
S1230892E60886F0120C8718F608A6F0120BA9120C8D5401C5F05400C5F045F07003020857
S12308B2B602089EE4F5F078FB120C54F608A6F0120BA95401C5F05400C5F045F0700302FF
S12308D208F778FB120C54E60886F0120C8718F608A6F07B0C7C00120CB770030208F4021E
S12308F208FA0208C202088D78FD120C54E60886F07B017C00120CA7700C18E60886F07B02
S1230912037C00120CB745F070030209220209E6740175F00078FD120C54860308860412B9
S12309320C76F50875F0007B037C00120C76440FF590E4F5F0181818F608A6F078FB120C21
S123095254E60886F07B647C00120CA77003020994801378FB120C54E60886F0120C8718FE
S1230972F608A6F080D6120A9FE509F454017003020991E4F5F078FB120C54F608A6F00232
S12309920965E4F5F078FB120C54F608A6F078FB120C54E60886F07B197C00120CA7700300
S12309B20209E6801378FB120C54E60886F0120C8718F608A6F080D6120A9FE509F45508B3
S12309D270030209E3E4F5F078FB120C54F608A6F00209B715811581158115812205810597
S12309F281E50875F0007B037C00120C76440FF590120A5DE4F5F078FD120C54F608A6F0EB
S1230A1278FD120C54E60886F07B197C00120CA77003020A58801378FD120C54E60886F0EB
S1230A32120C8718F608A6F080D6120A9FE509F455087003020A55E4F5F078FD120C54F685
S1230A5208A6F0020A29158115812205810581E4F5F078FD120C54F608A6F078FD120C5428
S1230A72E60886F07BE87C03120CA77003020A9A801378FD120C54E60886F0120C8718F6AB
S1230A9208A6F080D6020A8415811581220581058105810581120BA9120C8DC0E0C0F0E5B0
S1230AB208F475F000D004D0035BC5F05CC5F0540EC5F05400C5F045F07003020BA0E50A93
S1230AD2850BF0120C87F50A85F00B7B087C00120CC07003020BA0E4F5F0F50A85F00BE433
S1230AF2F5F078FB120C54F608A6F078FB120C54E60886F07B967C00120CA77003020BA0C7
S1230B12801378FB120C54E60886F0120C8718F608A6F080D6D297E4F5F078FD120C54F62D
S1230B3208A6F078FD120C54E60886F07B0F7C00120CA77003020B62801378FD120C54E6A9
S1230B520886F0120C8718F608A6F080D6020B4CC297E4F5F078FD120C54F608A6F078FDEF
S1230B72120C54E60886F07B0F7C00120CA77003020B9D801378FD120C54E60886F0120CA5
S1230B928718F608A6F080D6020B87020B141581158115811581227F06120C60E59075F0AA
S1230BB20078FD120C54F608A6F0181818F608A6F0E4F5F0181818F608A6F078F9120C5440
S1230BD2E60886F07B587C02120CA77003020C32801378F9120C54E60886F0120C8718F645
S1230BF208A6F080D678FB120C54E60886F0AB907C00120C9D7003020C2FE59075F000188E
S1230C12F608A6F00856C5F00856C5F018F608A6F0E4F5F078F9120C54F608A6F0020BE427
S1230C3278FD120C54E60886F044FEC5F04400C5F018181856C5F00856C5F0F5097FFA0284
S1230C520C6FC82581C822C92581C97A0022D083D082CF2581F581CFC082C08322CF25815C
S1230C72F581CF22BB000122C333C5F033C5F0DBF722120C8704700205F022F4C5F0F4C5FE
S1230C92F022120CC76009E4F5F022120CC760F7E4F5F00422120CC740F680EB120CC7401D
S1230CB2EF70E480EB120CC740DD70E480D9120CC750DD80D2C5F0C39C7003E5F09B22FB49
S1190CD2E493CB22FCE493FB740193CC22FAE493F9740193CA22E2
S9030000FC
