S12310408E7FFF7F404BBD14724F5F83000126FB7EE0003C37363C30A603D6013DED00A61D
S123106002D6013DEB00E700A603D6003DEB00E70032333838393C8FDC00028F38393C8F74
S1231080DC000238393C8FDC008C00002704050926FC38393C8FDC008C000027F50409267C
S12310A0FC38391A93002D24201A1A93002F1D20131A93002E16200C1A93002C0F20051A17
S12310C0930027084F5F391A930027F8CC0001391A930025F720ED1A930023F020E61A9348
S12310E00022E920DF1A930024E220D81A83000026D220D84F5D2A014A391AEE00270B080E
S1231100081AA3002707080820F01AEE02186E0015C115CB15D515DF15E915F315FD16075F
S12311201611161B16211627CC162D3736183018EC043736CC0002BD1D29383839CC003C24
S12311403736BD1D4738CC16503736BD1D0638FC40103736BD1EF3383939CC16693736BD68
S12311601D0638CC00643736BD1D4738CC16883736BD1D0638393C3C308FC300008F8F37A3
S123118036BD1E0738CC16973736CC0003308FC300028F3AE600BD10F43736CC0002308F58
S12311A0C300048F3AE600BD10F43736CC0001308FC300068F3AE600BD10F43736CC000485
S12311C0BD1D2938383838383839CC16B33736BD1D0638FC40083736CC005D3736BD1F4101
S12311E0383839CC16D43736BD1D0638CC003C3736CC00193736BD1D673838CC1706373639
S1231200BD1F5B3736CC0002BD1D29383839CC17213736BD1F743736CC0002BD1D2938383D
S1231220FC400E3736CC00193736BD1F413838CC17543736BD1F743736CC0002BD1D2938AA
S123124038BD1F7F39BD1E3FFD4010CC17863736BD1E3F3736CC0002BD1D293838FC40106D
S12312603736BD1E573839CC17B33736BD1D0638CC00003736BD1E3F38FD4010FC400A37EA
S123128036CC00003736BD1F413838FC40103736BD1E6338CC17EE3736BD1D0638FC40107D
S12312A03736BD1E573839CC00003736BD1E3F38FD4010CC18023736CC0001BD1D2938CC1B
S12312C0182C3736FC40103736CC00283736BD1E9B38383736CC0002BD1D293838CC184186
S12312E03736BD1D0638FC40103736BD1EF338CC186E3736FC40103736CC00283736BD1EF2
S12313009B38383736CC0002BD1D29383839CC18833736BD1D0638CC18A13736BD1D0638E1
S1231320CC18B93736BD1D0638CC18D33736BD1D0638CC18F63736BD1D0638CC191A373680
S1231340BD1D0638CC19333736BD1D0638CC194D3736BD1D0638CC196E3736BD1D0638CC79
S123136019893736BD1D0638CC19A53736BD1D063839CC19D13736BD239E3736CC0002BD61
S12313801D293838BD239EFD4004CC19EC3736CC0001BD1D2938CC1A333736CC0001BD1D61
S12313A02938FE4004EC00FD400426037E1468CC1A7A3736FE4004CC00123C30E300388F33
S12313C0EC003736FC40043736FE4004CC00063C30E300388FEC003736FE4004CC00043C32
S12313E030E300388FEC003736FE4004CC00023C30E300388FE600BD10F405CE11103AECCF
S1231400003736FE4004CC00033C30E300388FE600BD10F43736FE4004CC00143C30E300AF
S1231420388FEC003736FE4004CC00163C30E300388FEC003736FE4004CC00163C30E30082
S1231440388F3CFE4004CC00143C30E300388F183818EC00A3003736CC000ABD1D29308F51
S1231460C300148F357E13A2CC000A3736BD1C063839CC01003736CC00073736CC0020376A
S123148036BD2203383838FD400EBD23A2CC00403736CC00403736BD1B233838FD4006FC1F
S12314A0400626037E14B9CC1AA73736FC40063736CC0002BD1B053838CE11288F3736CCDB
S12314C001003736CC1ABF3736BD2319383838FD4008CE113D8F3736CC01003736CC1AC6A4
S12314E03736BD2319383838FD400ACE11598F3736CC01003736CC1ACD3736BD231938389C
S123150038FD400CBD130EBD1C73F74012CE15497E10FABD115A7E1575BD11767E1575BDE6
S123152011CA7E1575BD11E37E1575BD120E7E1575BD12457E1575BD12677E1575BD12A756
S12315407E1575BD13727E15751543007415430054153D00381537003715310036152B00F4
S12315603515250034151F0033151900321513003100001575F64012BD10F4DD00C61BBD96
S123158010F4BD10C726037E1596CC1AD43736BD1D0638BD1C73F64012BD10F4DD00C61B0B
S12315A0BD10F4BD10C727037E1504CC1AF23736BD1D0638CC00143736BD1D4738BD2443EA
S12315C03952756E6E696E67202000492F4F2057616974200053656D6170686F726500531A
S12315E0656D612F74696D6500526376206D6573672000536E64206D6573672000536C658A
S12316006570696E672000426C6F636B6564202000446F726D616E74202000536C65657091
S123162000416C61726D0053656D6120005461736B20313A204D65737361676520726563B6
S123164065697665642076616C75652025640A005461736B20323A205369676E616C6C6917
S12316606E672073656D610A000A476F696E6720746F20736C65657020666F722035207338
S123168065636F6E64730A005461736B20776F6B656E2075700A000A5468652074696D65E0
S12316A0206973202532643A253032643A253032640A000A53656E64696E67206D65737351
S12316C0616765202839332920746F205461736B20310A000A53656E64696E67206D6573B4
S12316E0736167652832352920746F2073656C6620776974682033207365636F6E64206472
S1231700656C61790A004D6573736167652072656365697665642076616C75652025640AF4
S1231720000A63686B6D736728292077697468206E6F206D657373616765207761697469B1
S12317406E672E2E2E2072657475726E7320253034780A0063686B6D736728292077697486
S123176068206D6573736167652077616974696E672020202E2E2E2072657475726E7320A8
S1231780253034780A000A4F70656E696E672073656D6170686F72652C2068616E646C65C4
S12317A02072657475726E656420697320253034780A000A57616974696E67206F6E207308
S12317C0656D6170686F726520746861742077696C6C206265207369676E616C6C65642031
S12317E0696E2033207365636F6E64730A0053656D6170686F726520726563656976656497
S12318000A000A446F696E6720737761697474696D282920776974682074696D656F7574D9
S1231820206F6363757272696E670A0052657475726E2076616C7565207761732025640AD3
S1231840000A446F696E6720737761697474696D282920776974686F75742074696D656F34
S12318607574206F6363757272696E670A0052657475726E2076616C756520776173202518
S1231880640A000A0A20204D582D3131204578616D706C652070726F6772616D20310A0AE5
S12318A000202031202020202020202020202020736C65657028290A0020203220202020CD
S12318C0202020202020202067657474696D6528290A002020332020202020202020202007
S12318E0202073656E646D736728292F6765746D736728290A0020203420202020202020FD
S1231900202020202073656E646D73676428292F6765746D736728290A0020203520202097
S123192020202020202020202063686B6D736728290A0020203620202020202020202020F5
S123194020206F70656E73656D28290A002020372020202020202020202020207377616946
S1231960742829737369676E616C28290A002020382020202020202020202020207377610F
S1231980697474696D28290A0020205420202020202020202020202053686F7720746173A4
S12319A06B730A0A0020202050726573732073656C656374696F6E2C202070726573732025
S12319C03C4553433E20746F20657869742E2E2E004D58205661726961626C6573207374E2
S12319E0617274206174202534780A005461736B2020202020202020202020202020202019
S1231A00544342202020537461727420537461636B205374617475732020202050726920F6
S1231A205350656E642053506D696E2053706163650A002D2D2D2D202020202020202020D7
S1231A40202020202020202D2D2D2020202D2D2D2D2D202D2D2D2D2D202D2D2D2D2D2D208B
S1231A602020202D2D2D202D2D2D2D2D202D2D2D2D2D202D2D2D2D2D0A00252D3138732020
S1231A8020253478202025347820202534782020257320202564202025347820202534786C
S1231AA020202025640A00506F7274206F70656E6564206572726F72203D2025640A005441
S1231AC061736B2031005461736B2032005461736B2033000A507265737320616E79206B9D
S1231AE0657920746F20636F6E74696E75652E2E2E000A50726F6772616D2066696E6973D7
S1231B006865640A00303A3A1830188F830064188F1835183CBD2445BD25DF308FC30066F5
S1231B208F3539183018EC04BD2173FF401CFF4014FF40168F18E304FD401E18EC02FD40D4
S1231B4024BD2173FF4020FF4018FF401A8F18E302FD4022CE00003CBD1E3F381A83000019
S1231B602736FD4028FE40243CBD1E3F381A8300002725FD4026CE00013CBD1E3F381A8369
S1231B8000002714FD402ACC1B9CDDC57F102C862CB7102DCC000039CCFFFF39B6102EB469
S1231BA0102D84A02B3626058601BD21A1FE4014B6102FA70008BC401E2603FE401CFF405C
S1231BC014BC40162709FE40283CBD1EF3383B08BC401E2603FE401CFF40163BFE401AA695
S1231BE000B7102F08BC40222603FE4020FF401ABC40182608B6102D847FB7102DFE402655
S1231C003CBD1EF3383B183018E6038D07C10A270139C60D183C3C363707360F37B6102DF4
S1231C208A80B7102DFE4026BD1C4533FE4018E70008BC40222603FE4020FF401832063341
S1231C403238183839EC042706830001ED043918FE403C860218A702CC000018ED10188F5F
S1231C601AEE022707ED0218ED102004ED00ED027E1FB707360FFE4028BD1C45FE4016E6C6
S1231C8000C10D2602C60A08BC401E2603FE401CFF401632064F393C183CBD1C731838385C
S1231CA03907360FFE4028EC042706BD1C978F2003CEFFFF32068F39301AEE04CE0001BD62
S1231CC01C97C17F271EC108271AC10A272F183C1830CDAC04183824E618E700081808BD46
S1231CE01C1420DB8C000127D6C608BD1C14C620BD1C14C608BD1C1409180920C2186F004F
S1231D00BD1C14098F39FE402A3CBD1E633830EE02E600270B083C3737BD1C06383820F19D
S1231D20FE402A3CBD1EF33839303A3A1830188F830064188F1835183CBD2445BD1D0630C4
S1231D408FC300668F35393007360FEC02BD1D8824063206CC000039FE403C8606A70232B6
S1231D6006CC00017E1FB73007360FEC04BD1D8824063206CC000039EC0218ED078601186A
S1231D80A7023206CC00013918FE403A26020D393C363718EC00FD403A3332CE402EDF02B4
S1231DA0FE402E270F1AA303251DA303DF02EE00270220F1CDEF00DE021AEF0018ED03FC23
S1231DC0403C18ED052018CDEF0018ED03FC403C18ED05EC0318A303ED03DE021AEF0086EF
S1231DE00018A7020C383918EC00188FCE402E1AA3002706EE0026F7200C1AEF00FE403A18
S1231E008FED00FF403A3930070F361AEE02CE4045C604A60018A7000818085A26F53206B3
S1231E203930070F361AEE02CE4045C60418A600A7000818085A26F5320639FC100E3918E4
S1231E4030070F36BD213618EC02ED04CC0000ED00ED0232068F3930070F36EE02BD2147BE
S1231E6032063930070F36EE02EC042708830001ED0432063918FE403C860218A702CC00D5
S1231E800018ED10188F1AEE022707ED0218ED102004ED00ED0232067E1FB730070F36EE50
S1231EA004EC04270B830001ED043206CC00013918FE403C860318A702CC000018ED10CDBB
S1231EC0EF0E188F1AEE022707ED0218ED102004ED00ED02183018EC03BD1D88251086FFB3
S1231EE018A702FE403C1AEF1832067E1FB79602BD21A13007360FEE021AEE00260AEC044B
S1231F00C30001ED0432063918A602810326143C183CCDEE04CC0100ED0618EE18BD1DE72B
S1231F20183838186F0218EC102602ED02ED0032067E1FB73007360FEE04EC02ED04320663
S1231F403930070F36EC02EE04BD20C232250706CC00017E1FB706CC000039070F36FE402F
S1231F603CBD215424098604A702BD1FB720F28F32068F39FE403CEC0A2703C300043907BA
S1231F800F36FE403C1AEE0A2603320639FC403A1AEE0C18ED00EC0AFD403ACC0000ED0A13
S1231FA0ED0C3206390FFE403C8608A702BD2154251BBD20F82016183C3C363707360FDE4F
S1231FC0003CDE023CFE403CAF04CE402CEE002710E60226F8FF403CAE0438DF0238DF00B6
S1231FE03B8604BD21A1436F707972696768742031393933204B6576696E204A205768691B
S12320007465008680B71023FC1016C3C350FD10167A404227013B8602B74042FE402E2725
S123202068EC03830001ED03265FA60227422B0BEC073CEE05BD20C238203B3C1AEE05CD9B
S1232040EE0E1AAC002710EE001AAC102714EE1026F79603BD21A118EC102602ED02ED0039
S1232060200518EC10ED10CDEE04CC0000ED06381AEE05186F021AEE0018FF402EBD214728
S1232080FE402E2704EC0327A15F3758CE40303AEE00270BEC043CEE02BD20C23820F13331
S12320A0CE40453A6C00A600CE20BE3AA100260BCE40453A6F005CC10426CF7E1FBE143C08
S12320C03C18188FA60281082730810426026F02188F3CBD2136271EED04CC0000ED00185D
S12320E03818EC0C27088FED0018ED0C0C39CDEF0CCDEF0A0C393839188FEC08830011ED33
S123210004188F18ED10EC0618ED0C186F05CC1FA518ED0E6F020C39FE4038270B36073CF2
S1232120EE00FF4038380632393637FC4038ED00FF4038333239FE403A270B36073CEE0099
S1232140FF403A380632393637FC403AED00FF403A3332391AEE0A271818EC002602ED0CFC
S1232160ED0AFC403A18ED0018FF403A18EC040C390D39DD00CE404B6D00270B3C3233C38C
S12321800003E3018F20F18602A700DC00ED01DF02D302C300038F6F00DE02080808DC006D
S12321A03936CE21D8BD21EF32BD21C2CE21E7BD21EF30EC00BD21C217BD21C2BD21F47EE0
S12321C0E00036444444448D0132840F81092E048B3020268B372022466174616C20457202
S12321E0726F72202D200020617420008D0C08A60026F939860D8D02860A7D102E2AFBB71E
S1232200102F390F30EC04861A3DBD2173FF4038FC4038301AEE04FE403818092709C30034
S12322201AED00EE0020F31AEF0030EC0286093DBD2173FF403A183018EE02FC403A1809EE
S12322402709C30009ED00EE0020F31AEF00BD2118FF402C8600A7021830188F183018A305
S123226006188F86A518A701188FDD02830011ED04ED16830040FD4040C30001ED14188F08
S123228086A518A7001AEE04CC2606ED0618ED0C186F05CC0000ED00CC230BED126F03BDDB
S12322A02118FC402CED00FF402CCC0000ED0AED0CED0EED10CC2314ED12CC1472ED066FB7
S12322C002FF403C8601A703B7403E1830188FED04ED16DC02C30001ED14CC2003DDE0865F
S12322E080B710228602B740424F5FFD4045FD4047B74049FD402ECC0000FD4030FD4032A9
S1232300FD4034FD40360EFC402C394E756C6C5461736B004D61696E00070F183036BD2101
S1232320182742FC402CED00FF402C18EC02ED1218EC06ED06C608E702CC0000ED0AED0CE3
S1232340ED0EFC4040ED08ED16ED0418A304FD4040C30001ED14188F86A518A7007C403E8D
S1232360B6403EA70332068F39070F183036BD213626063206CC00003918EC0405C340302A
S1232380183C188F18EC00ED00CDEF00183818EC06ED0218EC02ED043206CC000139CC4007
S12323A02C39070F3686BDB71FCACC23B3FD1FCB320639FE402CEC041AA3162E02ED1683A8
S12323C0000D1AA3142F121AEE1418A60081A5261CEE0026E1CE402C393CCE23F6BD21EF40
S12323E0383CEE12BD21EFBD21F4383F393CCE2416BD21EF20EA0D0A537461636B204F7609
S12324006572666C6F773A20205461736B206E616D65202D20000A0D537461636B20536905
S1232420676E617475726520436F727275707465643A20205461736B206E616D65202D208F
S1232440000E390F393C18DF001AEE0018A60018088125270CDE00A70008DF004D26ED38F3
S12324603918A600C620812D2607CA80180818A60081302602CA30D7025F18A6008030817E
S12324800A240C180836860A3D30EB003220EBD7033809093CEE0018A6001808183C18DE0D
S12324A000C60281622733C608816F272DC61081782727817527218164265A3C32334D2A29
S12324C0174353C300018F862D18A700180818DF00D60327037A0003C60A4F3637361838DD
S12324E04F8F02CB30C1392302CB0737188F4C8C000026E818DE00BD2545335D270718E76E
S123250000180820F57D00022A03BD254A18DF0018387E244C8173261A3C86FF4CE6000846
S12325205D26F938BD2545E60027DA18E70008180820F416816326018F8601BD254518E73D
S123254000180820C07D00022B1B3C3736D60327119602843F30E100230818A70018085A28
S123256020F432333839B6102E842026095F39B6102E852027F9F6102F4FC10D2619C60AF4
S123258039B6102E8420260BCCFFFF39B6102E852027F9F6102F4F39301AEE04CE00008D25
S12325A0CEC17F271DC1082719C10A272B183C1830CDAC04183824E718E7000818088D3B3C
S12325C020DD8C000027D8C6088D30C6208D2CC6088D2809180920C7186F008D118F393094
S12325E0EE02E60027B1088D0520F730EC02C10A26098D07C60D200330EC02B6102E8580BF
S113260027F9F7102F393EFE404908FF404920F6CC
S9030000FC
