S12310408E7FFF7F40C6BD1B024F5F83000126FB7EE0003C37363C30A603D6013DED00A60B
S123106002D6013DEB00E700A603D6003DEB00E70032333838393C8FDC00028F38393C8F74
S1231080DC000238393C8FDC008C00002704050926FC38393C8FDC008C000027F50409267C
S12310A0FC38391A93002D24201A1A93002F1D20131A93002E16200C1A93002C0F20051A17
S12310C0930027084F5F391A930027F8CC0001391A930025F720ED1A930023F020E61A9348
S12310E00022E920DF1A930024E220D81A83000026D220D84F5D2A014A391AEE00270B080E
S1231100081AA3002707080820F01AEE02186E001B361B3D1B441B4C1B561B5F1B661B6FC3
S12311201B711B751B7A1B7D1B801B831B861B891B8B1B8D0000308F8300248F35CC1B91F4
S12311403736BD216838CC1B9D3736BD216838CE406D8F3736BD21A938CE118F7E10FACC39
S12311601BB13736BD2168387E11A3CC1BC23736BD2168387E11A3CC1BD53736BD21683815
S12311807E11A3CC1BF23736BD2168387E11A31183000411770003116B0002115F00010011
S12311A00011A3CC1BFC3736BD216838308FC300078F8FFD406B3736CC00183736BD211AA4
S12311C038381A83000027037E11CE7E11A3BD178C3736BD21C538183018E70627037E1197
S12311E0E47E11A3CC0000183018ED0418ED02183018EC0405CE111E3AEC0018ED202706E7
S123120018EC02BD10EC26037E12B9FC406B183018ED221830CDEE20E60026037E126D183C
S1231220EC20C3000118ED208300018F3C18EC22C3000118ED228300018FE600BD10F43764
S123124036BD21C5381838DD0018E600BD10F4BD10C726037E1262CC0000183018ED027E45
S1231260126D183018EC0418ED027E1213183018EC0227037E128618EC04C3000118ED048E
S12312808300017E11EF1830CDEE22E600BD10F43736BD21EE381A83000026037E12B6CC33
S12312A00000183018ED0218EC04C3000118ED048300017E11EF7E11EF183018EC02CE1357
S12312C0CF7E10FACC1BFE3736BD216838CC1C1E3736BD216838CC1C3D3736BD216838CC16
S12312E01C5C3736BD216838CC1C7B3736BD216838CC1C9C3736BD216838CC1CC53736BDF3
S1231300216838CC1CE33736BD216838CC1CFF3736BD216838CC1D1F3736BD2168387E13FC
S1231320FFCC0001FD40067E13FFCC0000FD40067E13FFBD15A37E13FFBD15A37E13FFCE93
S123134040718F8FEC00FD406BFC407BDD00CC0002BD10DE26037E1369CE406D8F3736CCB3
S123136000033736BD21B73838CC0001183018ED00183018EC00DD00FC407BBD10DE260326
S12313807E13B4200D183018EC00C3000118ED0020DFFC406BC30001FD406B8300018F1885
S12313A03018EC00053CCE40713AEC00183818E7007E13857E13FFBD18C97E13FFBD17CC4C
S12313C07E13FFBD2265BDE000BD17497E13FF13C9000A13C3000813BD000713B70006136D
S12313E03F00051339000413330003132A00021321000112C4000912C40000000013FF7E53
S123140011A3308FC300248F35393C3C34FE406BE6004F1A8300002716FC406BC30001FDA5
S1231420406B8300018FE6004F3736BD21EE381A83000026037E143B7E140DCC00001830FE
S123144018ED00BD178CCC0000183018ED02FE406BE6004F3736BD21C538183018E7042770
S12314600F18E604BD10F43736BD225238BD10EC26037E1505FC406BC30001FD406B1830EB
S123148018EC02DD00CC0004BD108518ED0218E604BD10F43736BD2220381A83000026030F
S12314A07E14B6183018E604C030BD10F418E30218ED027E1502183018E604BD10F4DD0064
S12314C0C641BD10F4BD10AA271018E604BD10F4DD00C646BD10F4BD10B826037E14F218DB
S12314E03018E604C037BD10F418E30218ED027E1502CE406D8F3736CC00023736BD21B71E
S123150038387E144E183018EC02383831393C34FE406BE6004F1A8300002716FC406BC3BD
S12315200001FD406B8300018FE6004F3736BD21EE381A83000026037E153E7E1510BD1737
S12315408CCC0000183018ED01FE406BE6004F3736BD21C538183018E700270C18E600BD86
S123156010F43736BD2220381A83000026037E159BFC406BC30001FD406B183018EC01DD8E
S123158000CC000ABD105318ED0118E600C030BD10F418E30118ED017E1549183018EC0171
S12315A03831393C3C3CBD140A183018ED02BD140A183018ED04CC1D493736BD2168381846
S12315C03018EC02DD0018EC04BD10E526037E1701CC1D4B373618EC023736CC0002BD21BB
S12315E08B3838CC0000183018ED00183018EC00DD00CC0010BD10B126037E1662200D18EC
S12316003018EC00C3000118ED0020DF183018EC00CE407D3A3CCDEE02E600183818E7008B
S1231620CC1D513736183018EC04C3000118ED048300018FE6004F3736CC0002BD218B38BE
S123164038183018EC00DD00CC0007BD10BF26037E165FCC1D573736CC0001BD218B387E11
S123166015FFCC1D5A3736BD216838CC0000183018ED00183018EC00DD00CC0010BD10B188
S123168026037E16D52010183018EC00C3000118ED0083000120DC183018EC00CE407D3ADE
S12316A0E600BD10F4DD00C61FBD10F4BD10A326037E16C918EC00CE407D3AE600BD10F496
S12316C03736BD2068387E16D2CC002E3736BD2068387E1687CC1D5D3736BD216838BD21A8
S12316E003DD00CC001BBD10BF26037E16FECE406D8F3736CC00043736BD21B738387E158C
S1231700BF38383839CE405D8F3736BD232738CC1D5F3736CC0003CE405D3AE600BD10F4AF
S12317203736CC0002CE405D3AE600BD10F43736CC0001CE405D3AE600BD10F43736CC005F
S123174004BD218B3838383839CE405D8F3736BD232738CC0003CE405D3A3CBD150E183879
S123176018E700CC0002CE405D3A3CBD150E183818E700CC0001CE405D3AC600E700CE405B
S12317805D8F3736BD234138BD170539FE406BE6004F3736BD2252381A83000026037E1772
S12317A0ADFC406BC30001FD406B7E178CFE406BE6004F391D7C1D861D901D9A1DA41DAE01
S12317C01DB81DC21DCC1DD61DDC1DE2CC1DE83736BD27583736FC40063736CC0003BD213A
S12317E08B383838BD2758FD4065CC1E123736CC0001BD218B38CC1E593736CC0001BD21A2
S12318008B38FE4065EC00FD406526037E18C8CC1EA03736FE4065CC00123C30E300388FBB
S1231820EC003736FC40653736FE4065CC00063C30E300388FEC003736FE4065CC00043CAA
S123184030E300388FEC003736FE4065CC00023C30E300388FE600BD10F405CE17B43AEC5F
S1231860003736FE4065CC00033C30E300388FE600BD10F43736FE4065CC00143C30E30089
S1231880388FEC003736FE4065CC00163C30E300388FEC003736FE4065CC00163C30E3005C
S12318A0388F3CFE4065CC00143C30E300388F183818EC00A3003736CC000ABD218B308F26
S12318C0C300148F357E1802393CBD2758FD4061FC4061C30002FD4061830002BD1705FE26
S12318E04061EC00FD406726037E1964CC1ECD3736FE4067CC00053C30E300388FEE00CC25
S123190000123C30E300388FEC003736FE4067CC00033C30E300388FEC003736FE4067CCEE
S123192000073C30E300388FEC003736FE4067CC00023C30E300388FE600BD10F405CE1713
S1231940C63AEC003736CC0005BD218B3838383838FE4067E600BD10F4FD406727037E1828
S1231960EC7E1970CC1EFA3736CC0001BD218B38FC4061C30002FD4061830002CC00001848
S12319803018ED00183018EC00DD00CC0004BD10B126037E1A4D2010183018EC00C3000149
S12319A018ED0083000120DCCC1F0D3736183018EC023736CC0002BD218B3838FE4061EC4C
S12319C00026037E1A35FC4061FD4069FE4069EC00FD406926037E1A1DCC1F1C3736FE4001
S12319E069CC00023C30E300388FEE00CC00123C30E300388FEC003736FE4069CC00043CA8
S1231A0030E300388FEC003736183018EC063736CC0004BD218B383838387E19CCCC1F4326
S1231A203736BD216838FC4061C30002FD40618300027E1A4ACC1F453736BD216838FC40F9
S1231A4061C30002FD40618300027E19983839CC00083736CC00503736BD1F853838CE111F
S1231A60368F3736CC01003736CC1F573736BD26D3383838FD4002FC40023736CC000037FC
S1231A8036BD275C383839FC400626037E1AD2CE405D8F3736BD232738CC1F653736CC001F
S1231AA003CE405D3AE600BD10F43736CC0002CE405D3AE600BD10F43736CC0001CE405DA7
S1231AC03AE600BD10F43736CC0004BD218B3838383839CE1A878F3736CC01003736CC1FD2
S1231AE0753736BD26D3383838FD408DFC408D3736CC00013736CC00003736BD27233838B8
S1231B003839CC01003736CC00083736CC00103736BD25BD383838FD4000BD27C0CC000098
S1231B20FD4006BD1A4FBD1AD3CC00143736BD2267387E1B293953756E646179004D6F6E2A
S1231B406461790054756573646179005765646E6573646179005468757273646179004626
S1231B607269646179005361747572646179003F0052554E0053544F5000535300534D003B
S1231B804D4D0053500053540051003F00534554004D58204D6F6E69746F720A00456E7403
S1231BA0657220273F2720666F722068656C700A00496E76616C696420636F6D6D616E649D
S1231BC00A00496E76616C696420706172616D657465720A00496E76616C6964206E756D0E
S1231BE0626572206F6620617267756D656E74730A0041626F72746564210A003E005275C2
S1231C006E202020202020202020202020202D205374617274207363726970740A005374D1
S1231C206F702020202020202020202020202D2053746F70207363726970740A00535320C9
S1231C40202020202020202020202020202D2053686F77205363726970740A00534D203C57
S1231C6073746172743E203C656E643E2D2053686F77206D656D6F72790A004D4D203C611B
S1231C806464723E203C76616C3E202D204D656D6F7279206D6F646966790A005350202070
S1231CA02020202020202020202020202D2053686F7720506F6C6C2F54696D6572205175E5
S1231CC06575650A00535420202020202020202020202020202D2053686F77205461736BAF
S1231CE0730A00536574203C68683A6D6D3E20202020202D207365742074696D650A005156
S1231D002020202020202020202020202020202D20517569742070726F6772616D0A003F8E
S1231D202020202020202020202020202020202D20446973706C61792074686973206865D7
S1231D406C7020746578740A000A00253034783A00202530327800202D002020000A004376
S1231D60757272656E742054696D653A202532643A253032643A253032640A0052756E6E04
S1231D80696E67202000492F4F2057616974200053656D6170686F72650053656D612F7458
S1231DA0696D6500526376206D6573672000536E64206D6573672000536C656570696E6785
S1231DC02000426C6F636B6564202000446F726D616E74202000536C65657000416C61725D
S1231DE06D0053656D6120004D58205661726961626C6573207374617274206174202534B2
S1231E00782E202052756E2053746174652025640A005461736B20202020202020202020FC
S1231E20202020202020544342202020537461727420537461636B2053746174757320209D
S1231E402020507269205350656E642053506D696E2053706163650A002D2D2D2D202020E8
S1231E60202020202020202020202020202D2D2D2020202D2D2D2D2D202D2D2D2D2D202DA8
S1231E802D2D2D2D2D202020202D2D2D202D2D2D2D2D202D2D2D2D2D202D2D2D2D2D0A0049
S1231EA0252D31387320202534782020253478202025347820202573202025642020253483
S1231EC078202025347820202025640A005461736B3A252D313573202056616C75653A25EE
S1231EE0356420204D6573736167653A25356420204D6F64653A25730A004E6F2054696DA0
S1231F0065727320646566696E65640A00506F6C6C204C6973742025643A200020546173DC
S1231F206B3A252D31357320204D6573736167653A2535642020506F6C6C71756575653A9A
S1231F402564000A004E6F207461736B7320646566696E65640A00436F6E736F6C652049B2
S1231F606E70757400253032643A253032643A253032640A004F6E65205365636F6E642099
S1231F805461736B00183018EC04BD252DFF4097FF408FFF40918F18E304FD409918EC026D
S1231FA0FD409FBD252DFF409BFF4093FF40958F18E302FD409DCE00003CBD2980381A8307
S1231FC000002736FD40A3FE409F3CBD2980381A8300002725FD40A1CE00013CBD29803899
S1231FE01A8300002714FD40A5CC1FFEDDC57F102C862CB7102DCC000039CCFFFF39B61069
S12320002EB4102D84A02B3626058601BD255BFE408FB6102FA70008BC40992603FE409725
S1232020FF408FBC40912709FE40A33CBD2A34383B08BC40992603FE4097FF40913BFE4082
S123204095A600B7102F08BC409D2603FE409BFF4095BC40932608B6102D847FB7102DFE2F
S123206040A13CBD2A34383B183018E6038D07C10A270139C60D183C3C363707360F37B69F
S1232080102D8A80B7102DFE40A1BD20A733FE4093E70008BC409D2603FE409BFF4093320C
S12320A006333238183839EC042706830001ED043918FE40B7860218A702CC000018ED10EE
S12320C0188F1AEE022707ED0218ED102004ED00ED027E237107360FFE40A3BD20A7FE4018
S12320E091E600C10D2602C60A08BC40992603FE4097FF409132064F393C183CBD20D5181A
S123210038383907360FFE40A3EC042706BD20F98F2003CEFFFF32068F39301AEE04CE006A
S123212001BD20F9C17F271EC108271AC10A272F183C1830CDAC04183824E618E700081882
S123214008BD207620DB8C000127D6C608BD2076C620BD2076C608BD207609180920C218FC
S12321606F00BD2076098F39FE40A53CBD29A43830EE02E600270B083C3737BD2068383848
S123218020F1FE40A53CBD2A343839303A3A1830188F830064188F1835183CBD285FBD219B
S12321A068308FC300668F3539323330EE00ED00AF028F4F5F6E001830CDEE0418EC02AE47
S12321C002EE006E0030EC021A83006125081A83007A2202C4DF3930EC021A83004125F626
S12321E01A83005A22F0CA2039CC007F203518388D2E2705186E0018388D0926F7183CCC2F
S1232200617A201FCC415A201ACC217E20151838CC41468D0E26DDCC61668D0726D6183CA7
S1232220CC303930A103220BE1032507A6022603C601394F5F3930E603C17F27EFCC001F42
S123224020E130EC0237368DA5313126E6CC207E20D130E603C12027D3C10927CFC10A274D
S1232260CB20D00E390F393007360FEC02BD22A824063206CC000039FE40B78606A702325C
S123228006CC00017E23713007360FEC04BD22A824063206CC000039EC0218ED0786011862
S12322A0A7023206CC00013918FE40B526020D393C363718EC00FD40B53332CE40A9DF021E
S12322C0FE40A9270F1AA303251DA303DF02EE00270220F1CDEF00DE021AEF0018ED03FC83
S12322E040B718ED052018CDEF0018ED03FC40B718ED05EC0318A303ED03DE021AEF0086D4
S12323000018A7020C383918EC00188FCE40A91AA3002706EE0026F7200C1AEF00FE40B5FC
S12323208FED00FF40B53930070F361AEE02CE40C0C604A60018A7000818085A26F5320698
S12323403930070F361AEE02CE40C0C60418A600A7000818085A26F5320639FC100E390F4D
S1232360FE40B78608A702BD250E251BBD24B22016183C3C363707360FDE003CDE023CFEB7
S123238040B7AF04CE40A7EE002710E60226F8FF40B7AE0438DF0238DF003B8604BD255BD5
S12323A0436F707972696768742031393933204B6576696E204A205768697465008680B705
S12323C01023FC1016C3C350FD10167A40BD27013B8602B740BDFE40A92768EC03830001AC
S12323E0ED03265FA60227422B0BEC073CEE05BD247C38203B3C1AEE05CDEE0E1AAC00270C
S123240010EE001AAC102714EE1026F79603BD255B18EC102602ED02ED00200518EC10ED7A
S123242010CDEE04CC0000ED06381AEE05186F021AEE0018FF40A9BD2501FE40A92704EC53
S12324400327A15F3758CE40AB3AEE00270BEC043CEE02BD247C3820F133CE40C03A6C0043
S1232460A600CE24783AA100260BCE40C03A6F005CC10426CF7E2378143C3C18188FA602A3
S123248081082730810426026F02188F3CBD24F0271EED04CC0000ED00183818EC0C270808
S12324A08FED0018ED0C0C39CDEF0CCDEF0A0C393839188FEC08830011ED04188F18ED1026
S12324C0EC0618ED0C186F05CC235F18ED0E6F020C39FE40B3270B36073CEE00FF40B3389E
S12324E00632393637FC40B3ED00FF40B3333239FE40B5270B36073CEE00FF40B53806329E
S1232500393637FC40B5ED00FF40B53332391AEE0A271818EC002602ED0CED0AFC40B5182B
S1232520ED0018FF40B518EC040C390D39DD00CE40C66D00270B3C3233C30003E3018F20C1
S1232540F18602A700DC00ED01DF02D302C300038F6F00DE02080808DC003936CE2592BD8E
S123256025A932BD257CCE25A1BD25A930EC00BD257C17BD257CBD25AE7EE00036444444FB
S1232580448D0132840F81092E048B3020268B372022466174616C204572726F72202D2060
S12325A00020617420008D0C08A60026F939860D8D02860A7D102E2AFBB7102F390F30EC77
S12325C004861A3DBD252DFF40B3FC40B3301AEE04FE40B318092709C3001AED00EE0020D0
S12325E0F31AEF0030EC0286093DBD252DFF40B5183018EE02FC40B518092709C30009EDA3
S123260000EE0020F31AEF00BD24D2FF40A78600A7021830188F183018A306188F86A51802
S1232620A701188FDD02830011ED04ED16830040FD40BBC30001ED14188F86A518A7001AB5
S1232640EE04CC2A82ED0618ED0C186F05CC0000ED00CC26C5ED126F03BD24D2FC40A7ED18
S123266000FF40A7CC0000ED0AED0CED0EED10CC26CEED12CC1B02ED066F02FF40B7860133
S1232680A703B740B91830188FED04ED16DC02C30001ED14CC23BDDDE08680B71022860276
S12326A0B740BD4F5FFD40C0FD40C2B740C4FD40A9CC0000FD40ABFD40ADFD40AFFD40B19F
S12326C00EFC40A7394E756C6C5461736B004D61696E00070F183036BD24D22742FC40A786
S12326E0ED00FF40A718EC02ED1218EC06ED06C608E702CC0000ED0AED0CED0EFC40BBEDAF
S123270008ED16ED0418A304FD40BBC30001ED14188F86A518A7007C40B9B640B9A70332AC
S1232720068F39070F183036BD24F026063206CC00003918EC0405C340AB183C188F18EC3F
S123274000ED00CDEF00183818EC06ED0218EC02ED043206CC000139CC40A73930070F36E6
S1232760EC02EE04BD247C32250706CC00017E237106CC000039070F36FE40B7BD250E2475
S1232780098604A702BD237120F28F32068F39FE40B7EC0A2703C3000439070F36FE40B7B1
S12327A01AEE0A2603320639FC40B51AEE0C18ED00EC0AFD40B5CC0000ED0AED0C3206394A
S12327C0070F3686BDB72384CC27D1FD2385320639FE40A7EC041AA3162E02ED1683000DC3
S12327E01AA3142F121AEE1418A60081A5261CEE0026E1CE40A7393CCE2814BD25A9383C59
S1232800EE12BD25A9BD25AE383F393CCE2834BD25A920EA0D0A537461636B204F76657225
S1232820666C6F773A20205461736B206E616D65202D20000A0D537461636B205369676EE3
S1232840617475726520436F727275707465643A20205461736B206E616D65202D20003C04
S123286018DF001AEE0018A60018088125270CDE00A70008DF004D26ED383918A600C620BD
S1232880812D2607CA80180818A60081302602CA30D7025F18A6008030810A240C180836A7
S12328A0860A3D30EB003220EBD7033809093CEE0018A6001808183C18DE00C602816227A7
S12328C033C608816F272DC61081782727817527218164265A3C32334D2A174353C3000166
S12328E08F862D18A700180818DF00D60327037A0003C60A4F36373618384F8F02CB30C18E
S1232900392302CB0737188F4C8C000026E818DE00BD295F335D270718E700180820F57D15
S123292000022A03BD296418DF0018387E28668173261A3C86FF4CE600085D26F938BD29FE
S12329405FE60027DA18E70008180820F416816326018F8601BD295F18E700180820C07DFA
S123296000022B1B3C3736D60327119602843F30E100230818A70018085A20F43233383997
S12329801830070F36BD24F018EC02ED04CC0000ED00ED0232068F3930070F36EE02BD25E1
S12329A00132063930070F36EE02EC042708830001ED0432063918FE40B7860218A702CC0E
S12329C0000018ED10188F1AEE022707ED0218ED102004ED00ED0232067E237130070F3635
S12329E0EE04EC04270B830001ED043206CC00013918FE40B7860318A702CC000018ED10D4
S1232A00CDEF0E188F1AEE022707ED0218ED102004ED00ED02183018EC03BD22A825108674
S1232A20FF18A702FE40B71AEF1832067E23719602BD255B3007360FEE021AEE00260AEC0D
S1232A4004C30001ED0432063918A602810326143C183CCDEE04CC0100ED0618EE18BD23BD
S1232A6007183838186F0218EC102602ED02ED0032067E23713007360FEE04EC02ED043259
S10F2A8006393EFE40C408FF40C420F6A6
S9030000FC
