S12310408E7FFF7F404DBD14B74F5F83000126FB7EE0003C37363C30A603D6013DED00A6D6
S123106002D6013DEB00E700A603D6003DEB00E70032333838393C8FDC00028F38393C8F74
S1231080DC000238393C8FDC008C00002704050926FC38393C8FDC008C000027F50409267C
S12310A0FC38391A93002D24201A1A93002F1D20131A93002E16200C1A93002C0F20051A17
S12310C0930027084F5F391A930027F8CC0001391A930025F720ED1A930023F020E61A9348
S12310E00022E920DF1A930024E220D81A83000026D220D84F5D2A014A391AEE00270B080E
S1231100081AA3002707080820F01AEE02186E001695169F16A916B316BD16C716D116DBB8
S123112016E516EF16F516FB3C3CCC0000183018ED00CC000018ED02CC17013736BD1CBF42
S123114038FC40083736CC00003736CC00003736BD20C4383838BD2117CE11C77E10FA18AC
S12311603018EC0226037E117518EC00C3000118ED008300017E11DB183018EC0226037E58
S1231180118BCC000018ED027E1193CC0001183018ED02CC17113736183018EC023736186A
S12311A0EC043736CC0003BD1CE23838387E11DBCC17383736CC0001BD1CE238CC00001806
S12311C03018ED007E11DB11B000031193000211780001115F0000000011DB7E11563838C7
S12311E0393C3CCC0000183018ED00CC000018ED02CC17533736BD1CBF38FC400A3736CC5C
S123120000003736CC00003736BD20C4383838BD2117CE12807E10FA183018EC0226037E09
S1231220122E18EC00C3000118ED008300017E1294183018EC0226037E1244CC000018EDD9
S1231240027E124CCC0001183018ED02CC17633736183018EC02373618EC043736CC0003DE
S1231260BD1CE23838387E1294CC178A3736CC0001BD1CE238CC0000183018ED007E12940C
S123128012690003124C00021231000112180000000012947E120F3838393C3CCC000018B4
S12312A03018ED00CC000018ED02CC17A53736BD1CBF38FC400C3736CC00003736CC0000A3
S12312C03736BD20C4383838BD2117CE13397E10FA183018EC0226037E12E718EC00C30008
S12312E00118ED008300017E134D183018EC0226037E12FDCC000018ED027E1305CC000148
S1231300183018ED02CC17B53736183018EC02373618EC043736CC0003BD1CE23838387E95
S1231320134DCC17DC3736CC0001BD1CE238CC0000183018ED007E134D1322000313050016
S12313400212EA000112D100000000134D7E12C8383839CC17F73736BD1CBF38CC180E3706
S123136036BD1CBF38CC18453736BD1CBF38CC18743736BD1CBF38CC18A73736BD1CBF38A0
S1231380CC18D13736BD1CBF38CC19043736BD1CBF38CC19373736BD1CBF38CC195C37362A
S12313A0BD1CBF38CC19753736BD1CBF38CC198F3736BD1CBF3839CC19A53736BD20F937D4
S12313C036CC0002BD1CE23838BD20F9FD4004CC19C03736CC0001BD1CE238CC1A07373697
S12313E0CC0001BD1CE238FE4004EC00FD400426037E14ADCC1A4E3736FE4004CC00123C55
S123140030E300388FEC003736FC40043736FE4004CC00063C30E300388FEC003736FE4027
S123142004CC00043C30E300388FEC003736FE4004CC00023C30E300388FE600BD10F40593
S1231440CE11103AEC003736FE4004CC00033C30E300388FE600BD10F43736FE4004CC00BD
S1231460143C30E300388FEC003736FE4004CC00163C30E300388FEC003736FE4004CC0044
S1231480163C30E300388F3CFE4004CC00143C30E300388F183818EC00A3003736CC000A6E
S12314A0BD1CE2308FC300148F357E13E7CC000A3736BD1BBF3839CC01003736CC0007370C
S12314C036CC00203736BD1F5E383838BD2161C600F74015CC00403736CC00403736BD1A7D
S12314E0DC3838FD4006FC400626037E1500CC1A7B3736FC40063736CC0002BD1ABE38380B
S1231500BD1353CE11288F3736CC01003736CC1A933736BD2074383838FD4008CE11E18FF4
S12315203736CC01003736CC1A9A3736BD2074383838FD400ACE129A8F3736CC0100373623
S1231540CC1AA13736BD2074383838FD400CFC40083736CC00013736BD20FD3838FC400AD6
S12315603736CC00013736BD20FD3838FC400C3736CC00013736BD20FD3838BD1C2CF74001
S123158014CE163E7E10FAFC40083736CC00013736BD20FD38387E166AFC400A3736CC00D7
S12315A0013736BD20FD38387E166AFC400C3736CC00013736BD20FD38387E166AFC4008F6
S12315C03736CC00023736BD20FD3838FC400A3736CC00023736BD20FD3838FC400C373628
S12315E0CC00023736BD20FD3838CC1AA83736BD1CBF387E166AFC40083736CC00033736AC
S1231600BD20FD3838FC400A3736CC00033736BD20FD3838FC400C3736CC00033736BD2075
S1231620FD3838CC1AAA3736BD1CBF387E166ABD13B77E166A7E166ABD13537E166A16357F
S1231640001B162F0074162F005415F6007215F6005215BD007315BD005315AB0033159934
S123166000321587003100001638F64014BD10F4DD00C61BBD10F4BD10C727037E157BCCF7
S12316801AAC3736BD1CBF38CC00143736BD220038BD22FA3952756E6E696E672020004963
S12316A02F4F2057616974200053656D6170686F72650053656D612F74696D6500526376A0
S12316C0206D6573672000536E64206D6573672000536C656570696E672000426C6F636BC7
S12316E06564202000446F726D616E74202000536C65657000416C61726D0053656D61203C
S1231700005461736B203120737461727465640A005461736B20313A20436F756E746572A2
S1231720203D202535642052756E2073746174652069732025640A005461736B20313A20E7
S1231740526573657474696E6720436F756E7465720A005461736B2032207374617274652E
S1231760640A005461736B20323A20436F756E746572203D202535642052756E20737461E0
S123178074652069732025640A005461736B20323A20526573657474696E6720436F756E14
S12317A07465720A005461736B203320737461727465640A005461736B20333A20436F7562
S12317C06E746572203D202535642052756E2073746174652069732025640A005461736B39
S12317E020333A20526573657474696E6720436F756E7465720A004D582D31312045786107
S12318006D706C652070726F6772616D0A0054686973206578616D706C6520686173207460
S123182068726565207461736B73207468617420696E646570656E64656E746C7920636F64
S1231840756E740A00636C6F636B207469636B732E2020546865207461736B73207374619C
S123186072742075702064697361626C656420616E640A00636F756E74696E672063616E0B
S123188020656E61626C65642F64697361626C65642062792073656E64696E67207468658E
S12318A0207461736B0A0061206D657373616765206279207072657373696E6720746865FA
S12318C020312C32206F722033206B6579732E0A00546865207461736B2073746174757335
S12318E02063616E206265206F627461696E6564206279207072657373696E6720532061CB
S12319006E640A0074686520636F756E746572732063616E2062652072657365742062799C
S1231920207072657373696E67207468652052206B65792E0A0A00507265737320312D33DC
S123194020746F20656E61626C6564697361626C6520636F756E74696E670A0050726573FA
S1231960732053202020746F20676574207374617475730A005072657373205220202074B9
S12319806F207265736574207461736B730A005072657373203C4553433E20746F206578BF
S12319A069740A0A004D58205661726961626C6573207374617274206174202534780A0096
S12319C05461736B2020202020202020202020202020202054434220202053746172742009
S12319E0537461636B2053746174757320202020507269205350656E642053506D696E207D
S1231A0053706163650A002D2D2D2D202020202020202020202020202020202D2D2D202051
S1231A20202D2D2D2D2D202D2D2D2D2D202D2D2D2D2D2D202020202D2D2D202D2D2D2D2D6A
S1231A40202D2D2D2D2D202D2D2D2D2D0A00252D31387320202534782020253478202025C1
S1231A60347820202573202025642020253478202025347820202025640A00506F7274203B
S1231A806F70656E6564206572726F72203D2025640A005461736B2031005461736B2032A4
S1231AA0005461736B2033000A000A0050726F6772616D2066696E69736865640A00303A72
S1231AC03A1830188F830064188F1835183CBD22FCBD2496308FC300668F3539183018EC27
S1231AE004BD1ECEFF401EFF4016FF40188F18E304FD402018EC02FD4026BD1ECEFF4022CE
S1231B00FF401AFF401C8F18E302FD4024CE00003CBD24BD381A8300002736FD402AFE40A1
S1231B20263CBD24BD381A8300002725FD4028CE00013CBD24BD381A8300002714FD402CF9
S1231B40CC1B55DDC57F102C862CB7102DCC000039CCFFFF39B6102EB4102D84A02B3626AA
S1231B60058601BD1EFCFE4016B6102FA70008BC40202603FE401EFF4016BC40182709FECE
S1231B80402A3CBD2571383B08BC40202603FE401EFF40183BFE401CA600B7102F08BC40A0
S1231BA0242603FE4022FF401CBC401A2608B6102D847FB7102DFE40283CBD2571383B186B
S1231BC03018E6038D07C10A270139C60D183C3C363707360F37B6102D8A80B7102DFE408E
S1231BE028BD1BFE33FE401AE70008BC40242603FE4022FF401A3206333238183839EC0419
S1231C002706830001ED043918FE403E860218A702CC000018ED10188F1AEE022707ED0259
S1231C2018ED102004ED00ED027E1D1207360FFE402ABD1BFEFE4018E600C10D2602C60A52
S1231C4008BC40202603FE401EFF401832064F393C183CBD1C2C1838383907360FFE402AB6
S1231C60EC042706BD1C508F2003CEFFFF32068F39301AEE04CE0001BD1C50C17F271EC122
S1231C8008271AC10A272F183C1830CDAC04183824E618E700081808BD1BCD20DB8C00010F
S1231CA027D6C608BD1BCDC620BD1BCDC608BD1BCD09180920C2186F00BD1BCD098F39FEAB
S1231CC0402C3CBD24E13830EE02E600270B083C3737BD1BBF383820F1FE402C3CBD257163
S1231CE03839303A3A1830188F830064188F1835183CBD22FCBD1CBF308FC300668F353955
S1231D000FFE403E8608A702BD1EAF251BBD1E532016183C3C363707360FDE003CDE023C50
S1231D20FE403EAF04CE402EEE002710E60226F8FF403EAE0438DF0238DF003B8604BD1E0A
S1231D40FC436F707972696768742031393933204B6576696E204A20576869746500868026
S1231D60B71023FC1016C3C350FD10167A404427013B8602B74044FE40302768EC038300C7
S1231D8001ED03265FA60227422B0BEC073CEE05BD1E1D38203B3C1AEE05CDEE0E1AAC00FD
S1231DA02710EE001AAC102714EE1026F79603BD1EFC18EC102602ED02ED00200518EC100D
S1231DC0ED10CDEE04CC0000ED06381AEE05186F021AEE0018FF4030BD1EA2FE4030270411
S1231DE0EC0327A15F3758CE40323AEE00270BEC043CEE02BD1E1D3820F133CE40473A6C15
S1231E0000A600CE1E193AA100260BCE40473A6F005CC10426CF7E1D19143C3C18188FA64E
S1231E200281082730810426026F02188F3CBD1E91271EED04CC0000ED00183818EC0C27D9
S1231E40088FED0018ED0C0C39CDEF0CCDEF0A0C393839188FEC08830011ED04188F18ED94
S1231E6010EC0618ED0C186F05CC1D0018ED0E6F020C39FE403A270B36073CEE00FF403A83
S1231E80380632393637FC403AED00FF403A333239FE403C270B36073CEE00FF403C3806E2
S1231EA032393637FC403CED00FF403C3332391AEE0A271818EC002602ED0CED0AFC403CE3
S1231EC018ED0018FF403C18EC040C390D39DD00CE404D6D00270B3C3233C30003E3018F22
S1231EE020F18602A700DC00ED01DF02D302C300038F6F00DE02080808DC003936CE1F33F7
S1231F00BD1F4A32BD1F1DCE1F42BD1F4A30EC00BD1F1D17BD1F1DBD1F4F7EE000364444AB
S1231F2044448D0132840F81092E048B3020268B372022466174616C204572726F72202DA2
S1231F40200020617420008D0C08A60026F939860D8D02860A7D102E2AFBB7102F390F30A9
S1231F60EC04861A3DBD1ECEFF403AFC403A301AEE04FE403A18092709C3001AED00EE003B
S1231F8020F31AEF0030EC0286093DBD1ECEFF403C183018EE02FC403C18092709C300092E
S1231FA0ED00EE0020F31AEF00BD1E73FF402E8600A7021830188F183018A306188F86A572
S1231FC018A701188FDD02830011ED04ED16830040FD4042C30001ED14188F86A518A70097
S1231FE01AEE04CC25BFED0618ED0C186F05CC0000ED00CC2066ED126F03BD1E73FC402E5D
S1232000ED00FF402ECC0000ED0AED0CED0EED10CC206FED12CC14B7ED066F02FF403E8656
S123202001A703B740401830188FED04ED16DC02C30001ED14CC1D5EDDE08680B7102286BB
S123204002B740444F5FFD4047FD4049B7404BFD4030CC0000FD4032FD4034FD4036FD407C
S1232060380EFC402E394E756C6C5461736B004D61696E00070F183036BD1E732742FC4039
S12320802EED00FF402E18EC02ED1218EC06ED06C608E702CC0000ED0AED0CED0EFC4042C6
S12320A0ED08ED16ED0418A304FD4042C30001ED14188F86A518A7007C4040B64040A703C3
S12320C032068F39070F183036BD1E9126063206CC00003918EC0405C34032183C188F183E
S12320E0EC00ED00CDEF00183818EC06ED0218EC02ED043206CC000139CC402E3930070F10
S123210036EC02EE04BD1E1D32250706CC00017E1D1206CC000039070F36FE403EBD1EAF72
S123212024098604A702BD1D1220F28F32068F39FE403EEC0A2703C3000439070F36FE4088
S12321403E1AEE0A2603320639FC403C1AEE0C18ED00EC0AFD403CCC0000ED0AED0C32069D
S123216039070F3686BDB71D25CC2172FD1D26320639FE402EEC041AA3162E02ED168300A5
S12321800D1AA3142F121AEE1418A60081A5261CEE0026E1CE402E393CCE21B5BD1F4A3832
S12321A03CEE12BD1F4ABD1F4F383F393CCE21D5BD1F4A20EA0D0A537461636B204F766557
S12321C072666C6F773A20205461736B206E616D65202D20000A0D537461636B2053696746
S12321E06E617475726520436F727275707465643A20205461736B206E616D65202D200039
S12322003007360FEC02BD224124063206CC000039FE403E8606A7023206CC00017E1D1266
S12322203007360FEC04BD224124063206CC000039EC0218ED07860118A7023206CC000160
S12322403918FE403C26020D393C363718EC00FD403C3332CE4030DF02FE4030270F1AA336
S123226003251DA303DF02EE00270220F1CDEF00DE021AEF0018ED03FC403E18ED052018FD
S1232280CDEF0018ED03FC403E18ED05EC0318A303ED03DE021AEF00860018A7020C3839A8
S12322A018EC00188FCE40301AA3002706EE0026F7200C1AEF00FE403C8FED00FF403C395D
S12322C030070F361AEE02CE4047C604A60018A7000818085A26F532063930070F361AEE5E
S12322E002CE4047C60418A600A7000818085A26F5320639FC100E390E390F393C18DF0031
S12323001AEE0018A60018088125270CDE00A70008DF004D26ED383918A600C620812D2645
S123232007CA80180818A60081302602CA30D7025F18A6008030810A240C180836860A3D13
S123234030EB003220EBD7033809093CEE0018A6001808183C18DE00C60281622733C608D8
S1232360816F272DC61081782727817527218164265A3C32334D2A174353C300018F862D8A
S123238018A700180818DF00D60327037A0003C60A4F36373618384F8F02CB30C1392302D7
S12323A0CB0737188F4C8C000026E818DE00BD23FC335D270718E700180820F57D00022A16
S12323C003BD240118DF0018387E23038173261A3C86FF4CE600085D26F938BD23FCE60084
S12323E027DA18E70008180820F416816326018F8601BD23FC18E700180820C07D00022BE1
S12324001B3C3736D60327119602843F30E100230818A70018085A20F432333839B6102E35
S1232420842026095F39B6102E852027F9F6102F4FC10D2619C60A39B6102E8420260BCC45
S1232440FFFF39B6102E852027F9F6102F4F39301AEE04CE00008DCEC17F271DC1082719D9
S1232460C10A272B183C1830CDAC04183824E718E7000818088D3B20DD8C000027D8C60882
S12324808D30C6208D2CC6088D2809180920C7186F008D118F3930EE02E60027B1088D05E3
S12324A020F730EC02C10A26098D07C60D200330EC02B6102E858027F9F7102F391830076A
S12324C00F36BD1E9118EC02ED04CC0000ED00ED0232068F3930070F36EE02BD1EA2320687
S12324E03930070F36EE02EC042708830001ED0432063918FE403E860218A702CC0000186D
S1232500ED10188F1AEE022707ED0218ED102004ED00ED0232067E1D1230070F36EE04EC98
S123252004270B830001ED043206CC00013918FE403E860318A702CC000018ED10CDEF0E25
S1232540188F1AEE022707ED0218ED102004ED00ED02183018EC03BD2241251086FF18A7AC
S123256002FE403E1AEF1832067E1D129602BD1EFC3007360FEE021AEE00260AEC04C3000D
S123258001ED0432063918A602810326143C183CCDEE04CC0100ED0618EE18BD22A018385A
S12325A038186F0218EC102602ED02ED0032067E1D123007360FEE04EC02ED043206393E5D
S10C25C0FE404B08FF404B20F6DD
S9030000FC
