S1230000758142758920758DFD758BFD7588497598527800760008B842FA900FF47820E4EC
S123002093F6A308B82AF8B1530A0D442D424F582072656C6561736520312E310A0D0A4324
S12300406F7079726967687420313939322D3139393520446176652044756E6669656C6441
S12300600A0D416C6C207269676874732072657365727665642E0A0D0A55736520273F27F2
S123008020666F722068656C7000303C30C02B783A752B00E528C313FC5006B163E6B5303F
S12300A014309809C298E599C39526600E052B08EC70E380DA91EA712D80D4D02B75814222
S12300C0B1530A0D3E007E01B1207C307D38B144400624D0F52BB120F824F360ADB120F90C
S12300E090014FE4936042A3B50019E493A3B50114E520F52CE493C0E0A3E493F582D0838D
S1230100E47E0273A3A3A380DA7B0091FC5009B42D137B8091FC4011FA3135F93135F84993
S12301204A7001FB2224D560EB743F91F4EE24301204F401BD91FC40F075F060303A0375F9
S1230140F0A0B5F00050E2C4B4A00050DCC422535401DA504C01D0505501DF524501D544E5
S12301604601FD44520202464601E4465201E9434601F3435201F8525001EE53300207532F
S123018031020C53320211533302165334021B533502205155031B52430225525A023547EE
S12301A04F02534754025B4753025F475002664D4D03214558029A455202A2434F026D5A18
S12301C04902AA5A4F02AF5353022A3F0D02D200752D348058752D3A8053752D30804E7568
S12301E02D328049752D388044752D36803F752D74803A752D528035752D508030752D627F
S1230200802B752D608026752D408021752D44801C752D468017752D668012752D28800D12
S1230220752D4C8008752D8C8003752D3351C7B168712D018A51C7752D30B168752D36B1D8
S123024068753900B17A70F9752D30120568752D8C412F310951C7716B4131911E413191AF
S12302601E752D30412F911E752D32412FB1207C307D3AB144405924F0F8B126B40D097444
S12302803D91F4E691D6018AB122B43D4391FCF5F0B126B40D3AA6F0018A91FC4032F52D33
S12302A0412D91FC402AF52D8008752D358003752D37E521F52C51C7B1B3E43098FAC29855
S12302C0E599B526F34131B126B40D04743D81F42129900D1891EA7F19E493A3600FB47CCF
S12302E01191F2DFFC742D91F491F2B15A9370E5018AB47E21C083C082B15350726573737B
S12303002061206B65792E2E2E00B126740D91F4D082D08380C391F41F80BE51C7B1634151
S12303203151C7783AE4F608B842FB018D743A252BF8E529600291F4303B08E52B24309106
S1230340F491F2E530F6783091D491F291D491D491D491F2E53733742B5002742D91F4E58A
S12303603691D6E53591D6E53481D6B17A91316055C000C001C002C003852539B4FF1BADE5
S1230380239165DDFC9131B4FF32752D36B168B17A607191310460F78019AD22919EDDFC46
S12303A09131B40117752D38B168B17A605691311460F7752D30AC24B168DCFCD003D00272
S12303C0D001D00091316037B4FF0D30390AC000C001C002C00380B2C0E0752D34B168D055
S12303E0E0852539B4FF27752D60B168B17A600F91310460F7B17AB17AB17AB17AB17A753E
S12304002D30A168D003D002D001D00080F1752D62B168B17A60E891311460F780DF310965
S123042051C7852539B17A600791316003B4FFF522EBA2E7653730E7077401500274FF22B2
S1230440400EEAB536F3E9B535EFE8B534EBE422EAB5360AE9B53506E8B53402E4227401F8
S123046040DD74FF22303A0BE82401D4F8E93400D4F922EB20E71AE82401D4F8B4601E78DD
S123048000E92401D4F9B460147900EA2401D4FA22EA497027E8B4012378007B0022303AD4
S12304A00DE82499D4F8402BE92499D4F922EB20E7C5E8494A70057B80780122E82499D404
S12304C0F840107859E92499D4F940077959EA2499D4FA22E608C0E0C491DDD0E0540F24E5
S12304E030B43A00400E2407800A740A91F4740D800274203099FDC299F59922B10840076C
S1230500C4FFB10840014F22B1207C307D3AB14440039430227C417D47B14440EA943722CA
S1230520B1262038CF223098FDC298E599B5260201BDC0E0249F500994195005D0E0941F3E
S123054022D0E022C0E0C39C4006D0E0C0E09DB3D0E022D083D082B15A73E493A360A89116
S1230560F480F7E4F52CF52D7D0A532AF8B1B3DDFC0DE52A5407B407F422C02CE4F52CF57E
S12305802D532AF8B1B3E52A30E0F930E1F6D02CE4309809C298E599B52602E422E534B5F8
S11D05A03805D53907E422F538852539E530540F24FE22E52B2390080073DB
S1230800011001B1215221F34194613561D681777FEB3090FBDFFBE52C116FE52D116F11BD
S123082092F52E1192F52F1192F5301192F53154F0B420111192F5341192F535432A03E491
S1230840F536F53722B4300C1192F5341192F535432A0122B4400C1192F5361192F5374322
S12308602A02221192F5321192F533432A04227F007E00309009DEFBDFF97E030201297E5C
S1230880087F2CDFFE13B392907F2CDFFEDEF6D290223090FD7F007E00309006DEFBDFF9CB
S12308A080D87F467E08DFFEA290B3137F2DDEF6227FEB3091FBDFFBE52C3110E52D311075
S12308C03133F52E3133F52F3133F5303133F53154F0B420113133F5343133F535432A033E
S12308E0E4F536F53722B4300C3133F5343133F535432A0122B4400C3133F5363133F537DD
S1230900432A02223133F5323133F533432A04227F007E00309109DEFBDFF97E0302012973
S12309207E087F2CDFFE13B392917F2CDFFEDEF6D291223091FD7F007E00309106DEFBDFA1
S1230940F980D87F467E08DFFEA291B3137F2DDEF6227FEB3092FBDFFBE52C31B1E52D3148
S1230960B131D4F52E31D4F52F31D4F53031D4F53154F0B4201131D4F53431D4F535432A29
S123098003E4F536F53722B4300C31D4F53431D4F535432A0122B4400C31D4F53631D4F5EC
S12309A037432A022231D4F53231D4F533432A04227F007E00309209DEFBDFF97E03020182
S12309C0297E087F2CDFFE13B392927F2CDFFEDEF6D292223092FD7F007E00309206DEFBB3
S12309E0DFF980D87F467E08DFFEA292B3137F2DDEF6227FEB3093FBDFFBE52C5152E52D37
S1230A0051525175F52E5175F52F5175F5305175F53154F0B420115175F5345175F535433A
S1230A202A03E4F536F53722B4300C5175F5345175F535432A0122B4400C5175F536517512
S1230A40F537432A02225175F5325175F533432A04227F007E00309309DEFBDFF97E03026A
S1230A6001297E087F2CDFFE13B392937F2CDFFEDEF6D293223093FD7F007E00309306DE08
S1230A80FBDFF980D87F467E08DFFEA293B3137F2DDEF6227FEB3094FBDFFBE52C51F3E525
S1230AA02D51F37116F52E7116F52F7116F5307116F53154F0B420117116F5347116F53589
S1230AC0432A03E4F536F53722B4300C7116F5347116F535432A0122B4400C7116F5367141
S1230AE016F537432A02227116F5327116F533432A04227F007E00309409DEFBDFF97E0333
S1230B000201297E087F2CDFFE13B392947F2CDFFEDEF6D294223094FD7F007E003094063F
S1230B20DEFBDFF980D87F467E08DFFEA294B3137F2DDEF6227FEB3095FBDFFBE52C7194C8
S1230B40E52D719471B7F52E71B7F52F71B7F53071B7F53154F0B4201171B7F53471B7F5B1
S1230B6035432A03E4F536F53722B4300C71B7F53471B7F535432A0122B4400C71B7F536F9
S1230B8071B7F537432A022271B7F53271B7F533432A04227F007E00309509DEFBDFF97E40
S1230BA0030201297E087F2CDFFE13B392957F2CDFFEDEF6D295223095FD7F007E0030959E
S1230BC006DEFBDFF980D87F467E08DFFEA295B3137F2DDEF6227FEB3096FBDFFBE52C9194
S1230BE035E52D91359158F52E9158F52F9158F5309158F53154F0B420119158F53491588A
S1230C00F535432A03E4F536F53722B4300C9158F5349158F535432A0122B4400C9158F556
S1230C20369158F537432A02229158F5329158F533432A04227F007E00309609DEFBDFF9A3
S1230C407E030201297E087F2CDFFE13B392967F2CDFFEDEF6D296223096FD7F007E003011
S1230C609606DEFBDFF980D87F467E08DFFEA296B3137F2DDEF6227FEB3097FBDFFBE52CEC
S1230C8091D6E52D91D691F9F52E91F9F52F91F9F53091F9F53154F0B4201191F9F5349149
S1230CA0F9F535432A03E4F536F53722B4300C91F9F53491F9F535432A0122B4400C91F9CF
S1230CC0F53691F9F537432A022291F9F53291F9F533432A04227F007E00309709DEFBDF23
S1230CE0F97E030201297E087F2CDFFE13B392977F2CDFFEDEF6D297223097FD7F007E00A5
S1230D00309706DEFBDFF980D87F467E08DFFEA297B3137F2DDEF622442D424F5820436F04
S1230D206D6D616E64733A0A0053547C53746F70205472616E73706F727400504C7C504C81
S1230D40617920766964656F746170650050557C5061557365207472616E73706F727400C8
S1230D6052457C5245636F726420766964656F746170650044467C446972656374696F6E95
S1230D8020466F72776172640044527C446972656374696F6E205265766572736500434622
S1230DA07C43756520466F72776172640043527C43756520526576657273650046467C4629
S1230DC061737420466F72776172640046527C4661737420526577696E640052507C5265D2
S1230DE077696E6420616E6420506C617900525A7C526577696E6420616E64205A65726F90
S1230E0020636F756E7465720052437C5265736574207461706520436F756E74657200517F
S1230E20557C5155657279007E53307C5370656564203020287374696C6C290053317C533D
S1230E4070656564203120287665727920736C6F77290053327C5370656564203220287384
S1230E606C6F77290053337C5370656564203320286E6F726D616C290053347C5370656523
S1230E806420342028646F75626C65290053357C5370656564203520286869676829004708
S1230EA04F5B2D5D6E6E6E6E6E6E7C474F20746F20706F736974696F6E0047545B2D5D6ECE
S1230EC06E6E6E6E6E7C476F20756E54696C20706F736974696F6E0047535B2D5D6E6E6E2C
S1230EE06E6E6E7C476F20756E74696C20706F736974696F6E20616E642053746F70004731
S1230F00505B2D5D6E6E6E6E6E6E7C476F20756E74696C20706F736974696F6E20616E649E
S1230F202050617573650053537C53746172742F53746F702063616D657261207265636F38
S1230F407264696E67005A497C63616D657261205A6F6F6D20496E005A4F7C63616D657228
S1230F6061205A6F6F6D204F7574004D4D7C4D6F6E69746F72204D6F646573004558636376
S1230F807C455865637574652064697265637420434F4E54524F4C2D4C20636F6D6D616E2E
S1230FA06400455263637C457865637574652052657065617420434F4E54524F4C2D4C20C2
S1230FC0636F6D6D616E6400434F725B3D78785D7C51756572792F53657420636F6E666929
S1210FE06775726174696F6E20726567697374657273000011210A0A0A641B010100BD
S9030000FC
