S1232000BE2D0C3F173F04813F26143F195573653A20454454203C66696C653E003F008677
S12320202E1F8B8E2E21A69F2D0E26020F05A6A0A780810D26F86F1F108E2E213F0A26DD4B
S12320403F44270ACC2C87DD1B8E309820058E30983F3586FFA7844F5FDD00DD19CC309847
S1232060DD0DDD0F0A049605102A011EDE192707BD2A5B4F5FDD19BD2A1CD71D3440960474
S12320802703BD2AA69E1B2712BD2B93BD2B7B3F17BD2B7FBD2B734F5FDD1BBD2B98354002
S12320A010CE3098BD2BC68181270881802704D61DD7003402D6004F31CBA6E02A08488EBC
S12320C02CCAAD9620A0BD29ABE6A42B0CC10D2708810D27040D07271034221F983121E66B
S12320E0A4A7A42AF60C0B3522A7A40C00810D260DBD29E4BD27410F00BD27F820051F2306
S1232100BD2ADB7E2066BD2B933F18436F6D6D616E643A2000BD2B738E2E3A8D2CBD2B9385
S1232120BD2B7B0A068E2E3AA6802B05BD2B4F20F7BD2B7F0F06BD2B73BD29E4BD2213DC1F
S12321401B2605CC2C86DD1B395F96052A27BD2BC6818B260B5A2BF13F180820080020EA49
S1232160818D270CA7852BE25CBD2B4F20DC3F1686FFA785393F22810827DA817F27D681AA
S12321800D27EBA7855C3F2120EB9E1B27083F173F164F5FDD1BDE192709BD2A5B4F5FDDFC
S12321A01920049604271ADE0FA6C02B08810D270C3F2120F43F182A454F462A003F160F5F
S12321C0043F182A20008E2E3ABD21498D457E206681302506813922021A0439BD220A8EDB
S12321E00000A6A48DEB2622CC000A3F6B1F01E6A0C0303A20ECCE3098301F270CA6C02BCC
S123220006810D26F820F2335F39A6A0812027FAA6A239108E2E3A0F150F1F0F208DEB8D16
S1232220B026068DB78DCF20323121813D26100A20DE1127049E132024CC2C4FDD1B398154
S12322402F260ABD28E51F31CE30982010DE0F812A27061F31313F2006DE0F1F310A1FBD6D
S1232260220AA6A0812B2613BD21DCA6C42B273341810D26F6301F26F2201B812D261DBD1F
S123228021DC300111833098230CA6C2810D26F4301F26F033411F310A1FA6A0D6152604C4
S12322A0DF151F13DF17812C1027FF71DE159E1711931723041E31DF15E6842B063001C150
S12322C00D26F69F178D124D2A1ADF19962027084F5FDD11DD130A0439816125FB817A221C
S12322E0F7845F3981512620A6A48DED8151270E960A270ACC2CA1DD1B393F393F569605A1
S12323002A03BD2B6F4F3F00813F263D1F21961F260CBD28E5DF17DE15D6005C33CB1193D6
S12323201724118D152605DF197E22CC334120EE960426F5CC2C5FDD1B393450A6802B0682
S1232340A1C027F835D04F35D08153266FA6A02B61971D8E2E6C5FA6A02B57911D2705A7E1
S1232360805C20F386FFA784D71D27468E2E6C11931724BC8DC42640DF193472C6FF5CA67A
S1232380A02AFB970A9704E7E44F1F02AE63D01D27172509BD28F1D317DD17200F50BD297A
S12323A05D3406DC17A3E1DD17BD294C357233C620BDCC2C25DD1B39334120B381542609CF
S12323C0DF11301F9F130A0439814326268D037E22CCDE0F119315230C91172408CC2C3BD9
S12323E0DD1B326239DC1793151F029E15BD28F10A0439814D260D8DD9DE1511930F250C4A
S123240033CB20088144260CDC179315BD295D0A047E22CC814C26498D40119317240EA6A7
S1232420C0810D27043F2120F13F1620ED96052A263F180A0D507265737320616E79206BF3
S1232440657920746F20636F6E74696E75652E2E2E00BD2BC60A047E22CC9605102B070F74
S1232460398150266C8DF38E0001CE3098119315240AA6C0810D26F5300120F18620119395
S12324800F2602862A3F218C270F22173F158C03E722103F158C006322093F158C00092281
S12324A0023F151F103F1A862011931125071193132202863D3F213F15A6C02B11810D270A
S12324C0043F2120F43F16300111931725AE7E242D8146102600BDBD245ACE30988E000084
S12324E011931526029F1DA6C02B08810D26F8300120ED1F308330991F031F103F184669C6
S12325006C656E616D653A20008E2E213F178D5FDE158E0000119317240AA6C0810D26F553
S1232520300120F13F18506F736974696F6E3A2000DC1DC300013F1ADC1793151F031F104D
S12325408D2D3F185468657265206172652000960A26063F186E6F20003F19756E73617651
S12325606564206368616E6765732E007E242D3F182C20003F1A3F18204C696E65732C20DE
S1232580001F303F1A3F19204368617261637465727300398149262ABD245A3F19496E700A
S12325A075743A008E2E6CBD214996052A023F165D27B9860DA7855C4F1F02BD28F133CBED
S12325C020E281562613DF194F5FDD00A69F2D0E27040A0403057E22CC81242626BD245A09
S12325E08D0B34483F6435486AC47E242D3420A6A42B07BD22D9A7A020F56FA41F23352018
S12326003F04398152264B8D303F37263C0A04CE2E3A8E2E6C3F3A266BA6842B0730018CD2
S1232620306C25F51F10832E6C1F02DE158E2E6CBD28F133CBDF1520D68DB22604108E2E65
S1232640213F0A27076AC432627E242D6AC4CE2E3A398157270480582635971E961F260AE0
S1232660BD28E5DF17CE3098DF158DCD3F3826D99E15A6803F3D260C9C1725F60F0A961E1A
S12326801027FC763F393F560F3A0F0C7E22CCCC2C15DD1B39CC2C09DD1B3903080A047EA9
S12326A029E4CC2C9003072B03CC2C97DD1B39BD2B93BD2B7B3F1820437572736F723A205C
S12326C000D6018D383F1820646F776E2C2000D6028D2A3F18206F7665722C206174206379
S12326E068617261637465722000D6008D0F3F1820696E206C696E6520007E2B7F4FC3008A
S1232700013F1A39BD286DBD2A1CD700BD2B98BD29AB1F23A6C42B15E621E7A02AFA0A0B32
S1232720810D102603B5BD29E496042714398D30A6A0A7802B055C810D26F54FD70CBD29CA
S12327405DD601DE0F7E2AAB8D16A6A0A7802B07810D27035C20F34FD70CBD295D7E2B7703
S1232760BD29E4D6004FD30F1F031F028E2F6C5F398DEDD60C4F1F02BD28F120C4BD29E430
S12327807E2057BD29E4DC0FDD0D0F010A0439BD29E4DE0F9E11260FDF11DF134F9702D60F
S12327A001BD2B9E7E2ADB119311270B22021E139F11DF137E2AA68E00001F1320F2A6A4C3
S12327C0810D2729A6A42B0A8120230631210C0020F2A6A02B16810D27128120220E0C0033
S12327E020F086FF9700A6A4810D270C39A6A4810D27030C00390F003416BD29E4DE0FA668
S1232800C42B103341810D26F6DF0FD601C11624040C0135969E0DA680810D26FA9F0D864A
S123282085BD2B81BD2AAB35963406BD29E4C616DE0DA6C42B093341810D26F65A26F3DF70
S12328400DDF0F0F010A043586D6002720A6A2812022055A26F7200B3121A6A28120230370
S12328605A26F7D700399600270B0F00390A0096004C2701393416BD29E4DE0F335F118349
S123288030982506A6C2810D26F43341DF0F0A012A289E0DC60C8C3098230BA682810D2697
S12328A0F55A26F230019F0D5FD10024095CA6C0810D26F5335FDF190A043596BD29E4BD1E
S12328C028E5DF19DF0DDF0F3406BD29E4C617DE0D11833098230BA6C2810D26F45A26F13E
S12328E033417E283F3402DE0DA6C02AFC335F358234768DF0334130CB8CDBFF2247A6C2B8
S1232900A78211A36622F711930D2406DC0DE3E4DD0D11930F2406DC0FE3E4DD0F119311B2
S12329202406DC11E3E4DD111193132406DC13E3E4DD1311A3622406EC62E3E4ED62AE628C
S1232940BD294C35F6CC2C69DD1B35F63121313F2706A680A7C020F686FF970A39345630E7
S1232960CB11930F240FDC0FA3E410A36424021F30DD0FDD1911930D240FDC0DA3E410A3BB
S12329806424021F30DD0D0A041193112406DC11A3E4DD111193132406DC13A3E4DD13A634
S12329A080A7C02AFA86FF970A35D634568E2E6CD6004F318B96092629DE0F0F0B0C0BA692
S12329C0C42B0A3341A780810D270F20F0860DA780D6015CBD2AABBD2B9886FFA78497093C
S12329E0970A35D6347696092730DE0F1F315FA6842B075C3001810D26F54F3404D60B1FD2
S1232A000235048E2E6CD00B240650BD28F120082703BD295DBD294C0F0935F63412DE0FE7
S1232A2096092703CE2E6C1F310F025FD1002413A6802B0F810D270B5C0C02810926ED8DE5
S1232A405A20E99603910222068B509102220A802897038D8F0A0420EA359234565F9E0D50
S1232A60AC64240DA680810D26F65CC11623F1AE640F00D70111833098230CA65F810D27BC
S1232A8006335F0C0020EEDF0FAE649C0D2504C11623060F01DF0D0A0435D696028507274E
S1232AA0040C0220F639DE0D5FD7043446960234024F9702BD2B9EA6C42B098D1E5CC11759
S1232AC0241020EDBD2B7B3F182A454F462A00BD2B7FBD2B733502970235C696038B509731
S1232AE01E119311250A11931322050A06BD2B7B960291032414A6C42B40810D273C3341E1
S1232B000C02810926EA8D9320E69602911E242CA6C42B26810D27163341810927048D2FE1
S1232B2020E83F150C029602850726F620DC0D082A088D1B9602911E24028D3BA6C42B062C
S1232B403341810D26F6960627040F068D31393406812024148683C6840D0627021E898DAA
S1232B6020A6E48B408D1A1F988D160C0235868680200E8682200A868120068683200286CE
S1232B80844D2B033F21393412488E2D10AE863F173592CC0017200696029003D60134169A
S1232BA0BE2D0EA680271D2B043F2120F6E6E485402702E661EB80852026041F9820EA4FC0
S1232BC03F1A20DF35963454CE2D1CC6808E2D02A6802722A1C42604334120F4A6C026FC1E
S1232BE05CA6C426E88E2D02A680270EE680E71E26FA847F35D4A6C427083F22A71F6F849B
S1232C0020C61F987F2D0235D4496E76616C6964206B657900556E6B6E6F776E20636F6DDD
S1232C206D616E6400496E76616C69642073656172636820737472696E6700496E76616CE2
S1232C4069642064657374696E6174696F6E004E6F20746167676564206C696E6573004E0F
S1232C606F7420666F756E64004F7574206F66206D656D6F7279202D204368616E67657325
S1232C80206C6F737407004E65772066696C6500496E73657274004F766572777269746521
S1232CA000556E7361766564206368616E6765732C20757365202771712720746F2071754F
S1232CC0697420616E7977617900287527F827ED286D28C8282927E22866277D28BC270F5F
S1232CE02704269D2106211D26A2269B26AF2783278F272E2748277127BE28492695269597
S1202D002695000000000000000000002D1C2D1C2D1C2D1C2D1C2D1C2D1C2D1C00AF
S1202E000000000000FF00FF00000000003098309800000000000000000000000023
S9030000FC
