S1232000BE24D23F173F04813F261A3F195573653A204845584544203C66696C656E616DEA
S1232020653E003F00A69F24D426163F19545459206E6F7420646566696E65640086633F60
S1232040003F0A26FA8E26173F3526F3BF25ABCE2617BD22E5BE25B02716CC0017BD23BE0C
S1232060BD23A23F17BD23A6BD23AA4F5FFD25B0B625AE840FF625AF2B09340248ABE08B46
S12320800820028B3CF625AE54545454CB04BD23BEBD23E6F625AE1F313A4D102A01C281E1
S12320A08C27AF81802621C010244ECB10335011832617240A8E2491BF25B0CE26175FF79B
S12320C025AEBD23447E205581812628CB102429C01033C810BE25AB3089FF00341011A381
S12320E0E123DC8E24ADBF25B0FE25AB33C9FF00C6FF20CB818226075CF725AE7E205581C6
S12321008326035A20F38184260633C9FF00209F8185260633C9010020BB8188279D8189D6
S123212027C7818F26067325AF7E2055818D2710818E27068E24297E205A108E25B320400D
S1232140CC0017BD23BE3F18436F6D6D616E643A2000BD23AA8E25B31F12BD23E64D2B0724
S1232160A780BD239120F36F84818B260F8C25B323CE301F3F180820080020DE818D26B46B
S1232180CC0015BD23BEBD23AA3F042725BD22DA31218157261FFC25AB8326171F89544FA4
S12321A08E26173F3626057F25AD20068E2461BF25B07E20558151261AB625AD270FA6A485
S12321C0BD22DA815127068E24687E205ABD239E4F3F00814726218D133F07263A1F10346D
S12321E0045FC326171F0335047E20D51F21A684BD22DAA78026F739812F26218DEE7F25F4
S1232200B28E25E53F04272834103F0735102607E7807C25B220ED8E24357E205A813F2656
S12322203A8E25E5C6FF5CA6A0A78026F9F725B21F31F625AE3A108E25E55F3001BC25AB36
S12322402413A6A0A18526EE5CF125B225EF1F10832617208A8E24577E205A8E24477E205A
S12322605AF625AF2B118D4648484848B725B2BD23E68D3ABA25B2A78486FFB725ADB62547
S1232280AE7C25AE1F89840FB725B248BB25B28B0854545454CB04BD23BEA6843F1CB625EA
S12322A0B28B3CBD23BEA684BD23917E20551F89813025198139230C8D208141250F81468B
S12322C0220B800780301E893F211F98393262CC2435FD25B0B625AE20AA81612506817AB9
S12322E02202845F39BD239EC61E8D6CBD23A23F182048455845442056657273696F6E20B2
S1232300312E302000BD23A6C61E8D4CCC0002BD23BE3F1846696C653A20003F1ECC3C02C3
S1232320BD23BE3F1853697A653A2000FC25AB83261734063F1A3F182028240035063F1B38
S123234086293F21CC0004BD23BEC6101F318D103088105A26F82052862D3F215A26FB39C0
S123236034161F108326173F1B86048D1EC610A6803F1C3F155A26F786048D0FAE62C61063
S1232380A6808D0D5A26F93F1635963F154A26FB3981202504817F2502862E3F21398680A4
S12323A0200A868320068684200286824D2B033F21393412488E24D6AE863F1735923416C7
S12323C0BE24D4A680271D2B043F2120F6E6E485402702E661EB80852026041F9820EA4FEB
S12323E03F1A20DF35963454CE24E2C6808E24C8A6802722A1C42604334120F4A6C026FC8C
S12324005CA6C426E88E24C8A680270EE680E71E26FA847F35D4A6C427083F22A71F6F84C5
S123242020C61F987F24C835D4496E76616C6964206B657900496E76616C6964206865782B
S123244020646967697400556E6B6E6F776E20636F6D6D616E64004E6F7420666F756E64EB
S1232460004661696C656400556E7361766564206368616E6765732C207573652027717182
S12324802720746F207175697420616E79776179004261636B7570206265796F6E642073E8
S12324A074617274206F662066696C6500416476616E6365206265796F6E6420656E6420DE
S12324C06F662066696C65000000000000000000000024E224E224E224E224E224E224E239
S10624E024E200EF
S10A25AB26170000000000E8
S9030000FC
