S123E000FFFF2000108EDC507EF99FF7DCD5BFDCD610BFDCD8F6DCEBF7DCDA316AAEA4E625
S123E02080AFA4C16F2437588EF8C13AEC84FDDCCB10BFDCDBB6DCA32606357F6E9FDCCB42
S123E040BDE5B45353522000AEA4E61FBDE4E3BDE5B4202D2000357F8D336E9FDCCB1F2445
S123E060BDE5B4496E76616C6964205353522000BDE4E3BDE5B4206174202400ECE18300E4
S123E08002BDE5ABBDE5EE7EE25C8D01393407BDE5B450433D00EC65830002BDE5ABBDE5F4
S123E0A0B42043433D00A6E4BDE5C0BDE5B42044503D001FB8BDE5C0BDE5B420413D00A6BF
S123E0C061BDE5C0BDE5B420423D00A662BDE5C0BDE5B420583D001F10BDE5ABBDE5B4201D
S123E0E0593D001F20BDE5ABBDE5B420553D001F30BDE5ABBDE5B420533D001F40C3000727
S123E100BDE5ABBDE5EE358710CEDE008EDC006F808CDE0025F9BDE004BDE68B7FDCECBDF2
S123E120E5B4524F4D2E2E2E20008EE0024F5FEB8089008C000026F710B3E000270FBDE574
S123E140E44661696C6564007ADCEC20028D32BDE5B452414D2E2E2E2000BEE002A684C6FF
S123E16080E784E18426325426F7A7801F105D2607BDE639811B27148CDFFF25E08D0220D1
S123E18034BDE5E45061737365640039BDE5E441626F72746564002019A784BDE5B4466180
S123E1A0696C65642061742024001F10BDE5ABBDE5EE7ADCECBDE5E40A4355424958207695
S123E1C0657273696F6E20312E330A0D0A436F7079726967687420313938332D3139393426
S123E1E020446176652044756E6669656C640A0D416C6C207269676874732072657365720E
S123E2007665640A0D00B6DCEC2618108EF76DBDE3DDCEE223344010FFDCDBBDE6F8260398
S123E2207EE2F010CEDE00BDE699BDE50B8D3427F21F89BDE5B452633D00BDE4E3BDE5EE07
S123E24020E134018E0000BFDCE9BEDCE62604350120DC35017EF5E410FFDCE94F5FFDDCAE
S123E260E620C010FFDCDBB6DCEBB7DCDABDE542271A10BFDCCF8140102712578EF84FBD92
S123E280E56BC10E2433588EF8A56E9539BDE329CC4558ED81A784BDE6BFA688178520101E
S123E2A0270670EC8813AE8815BFDCCDBDEED3F6DCEBBDE5426E9FDCCD7FDCCD8EDCAEBDB1
S123E2C0E4198D6D862AA784B6DCB7B7DCEBCC0000BDE662BDE38927173088208CE0002500
S123E2E0F3FCDCDFBDE64526E88EF77786FF2060A68812B7DCCAEC8810FDDCC810834000E4
S123E300102711E4108345582605A18812278B1F128EDCC0ED81A6A812A7806F808CDCC816
S123E32025F910BEDCCF7EE290BDE41686FFB7DCCDC608BDE54F2706812F2605313F7EE41D
S123E3400FA7805A2AED7DDCCD279E8EF78C860134017DDCA22706BDE5DABDE5EE350134BC
S123E36001F6DCDAF7DCEBBEDCD610BEDCD8F6DCD53501270510FEDCDB3910FEDCDB1A0452
S123E380398EDCAEBDE41920A33436108EDCB8A68426034A2010C6088D0E260AC6088D0846
S123E3A02604C6038D0235B6A6A0812A2708A18026065A26F33930015A2704312120F78133
S123E3C02A393416C6138EDCB8A680812A27045A26F74F4D35968D058DE82620398D37C6A7
S123E3E0088D26812E2707A7805A2AF5200E8D1FC603BDE54F2708A7805A2AF67EE34B8D44
S123E4000EBDE5428EDCB84F39BDE54F27EE395A2B516F8020F98EDCA5A680B7DCB7BDE51E
S123E42042270BE621C13A26058D3DB7DCB734201F128EDCB8C608A6A0A7805A26F9352073
S123E440A6A4815B261D8EDCB83121C608BDE409815D2708A7805A2AF47EE34B8DB17DDC74
S123E460B827F64F39BDE542ECA1C13A26EB8041810424E51A0439BDE54227DD8124264322
S123E4803121BDE54227D28E0000BDE54F27288030810A250A81112DC08007811024BAB7E5
S123E4A0DCCC8605B7DCCB1F10308B7ADCCB26F7FADCCC1F0120D3BDE5424F39BDE542108A
S123E4C027FE888E0000BDE54F27EC803081091022FE783402CC000ABDF6FCEBE089001FE9
S123E4E00120E34F3436108E00001F01CC000ABDF71C340431218C000026F135028B30BD1B
S123E500E600313F26F535B6BDE5EE862ABDE600108EDC001F20C15022EEBDE640817F27D4
S123E520048108260B313FBDE5B40820080020E4BDE6008D2BA7A0810D26D9108EDC007EF8
S123E540E5EEA6A0812027FA6DA22702810D39A6A0270881202708810D2604313F1A043919
S123E560816125FB817A22F7845F395F8DD4A6802AFC301F3420847F272CB7DCCB30017A57
S123E580DCCBA6848DDAB7DCCC8DC42714B1DCCC27EB812F2709813D270535205C20CF314E
S123E5A03FBADCCB2AF48D9A5D35908D131E898D0F1E89393410AE628D20AF621A04359098
S123E5C03402444444448D06A6E48D023582840F8B308139232A8B0720263402A680271EC0
S123E5E08D1E20F83410AE628DF0AF6235103402860A8D0C860D2004340286208D023582F5
S123E6003416F6DC6D20023416C108240D8EDC7E58AE852705AD844F35968EF82A860A7E5F
S123E620E3508D0326FC393414C10824ED8EDC6E58AE8527E5AD8435943414F6DC6C20E99E
S123E6408DF726FC39340258498401C3DE001F013504CB014F34108D093510EC841083FF45
S123E660FF3934028EDE00B6DCEBB1DCDE2608A6E410B3DCDF27108D20B6DCEBB7DCDEA626
S123E680E4FDDCDFBDEB4535828D0E3406CCFFFFFDDCDFB7DCDE4F35867DDCDD27C33416FA
S123E6A0B6DCEB3402B6DCDEB7DCEBFCDCDF8EDE00BDEB787FDCDD3502B7DCEB4F35968DDE
S123E6C0372758108EF7A7860234037DDCA22721BDE5B44572726F722070726F63657373C3
S123E6E0696E672066696C653A2000BDE73DBDE5EE1F2135037EE350B6DCB7B7DCEBCC0091
S123E70000BDE662BDE38927123088208CE00025F3FCDCDFBDE64526E88602398DA18D30D9
S123E720BDE5EE3088208CE000250BFCDCDFBDE64527E8BDE662BDE38926E820E134168E0E
S123E740DCB7A6808B41BDE600863ABDE60020023416865BBDE6008D12865DBDE6008D0B7D
S123E760862EBDE600C6038D043596C608A6802703BDE6005A26F639B6DCEB3440BDEB6FA1
S123E780E643A6423DA6413D35C0BDE3C21026FBBABDE6F82609108EF7B686077EE6C98D65
S123E7A06FFDDCCDCC0000BDE662C6106D8427323088205A26F6FCDCDFBDE64526E9FCDC7B
S123E7C0CDED84BDE80734068D46FDDCCDBDE69E3506FDDCDF8EDE006F808CE00025F98EF1
S123E7E0DE003420108EDCB8C613A6A0A7805A26F935203088EDFCDCD3ED881586F0A7881E
S123E80017FCDCCDED88137FDCDD7ADCDD1A0439BDE778FDDCCB8300017DDCDF26128B01AE
S123E8203402F6DCE0B1DCE02506C10125028D11C6018D0D5CE1E423F98EF7CA86087EE3F1
S123E840504F3434BDE662EC8127078CE00025F735B41F1083DE024456A6E4800110B3DCC6
S123E860CB24ED3261108EFFFF10AF1E3530326320953414BDE909EC8813ED42ED444F5F71
S123E880ED48ED46F6DCB78601ED40B6DCDAB7DCEB4F35943414304AA641B7DCEBEC48264C
S123E8A012A6404A2676EC441083FFFF2776BDEB45EC48308BC3000110830200250F34106B
S123E8C0EC44ED46BDE645ED4435104F5FED48B6DCDAB7DCEBA68081FF27491A0435943475
S123E8E014A6404A2636A641B7DCEBEC441083FFFF2731ED46BDEB45BDE645ED44B6DCDA51
S123E900B7DCEB4F5FED483594BDE6BFA6881785802635108EF81086037EE6C98EF7E1867A
S123E920047EE35086067EE35F3406EC42ED444F5FED48ED463586BDE6F82705BDE78A2053
S123E94007A68817854027CBFCDCDF1A043934148DE5EC8813ED42ED444F5FED48ED46B635
S123E960DCB7A7418602A740B6DCDAB7DCEB4F35943416304AEC481083020025048D19EC5F
S123E98048308BC30001ED48A6E4A7841A0435968EF7F886057EE3503414A640810226F059
S123E9A0A641B7DCEBEC441083FFFF2613BDE8103406EC46BDE6453506ED84BDE807AE6184
S123E9C0ED46BDEB78BDE645ED44B6DCDAB7DCEB4F5FED4835943414A64081022639A6413A
S123E9E0B7DCEBEC482604AE462617304A308B1083020024096F846380C3000120F1304AEA
S123EA008D96EC46BDE645CCFFFFED84EC441083FFFF2703BDEE246F40B6DCDAB7DCEB4FD8
S123EA203594BDE9293416E6405A1026FEEEA641B7DCEBEC48E3E410830200251A3406ECF4
S123EA40441083FFFF1027FEDBED46BDE645ED44350683020020E0ED48270FEC441083FF94
S123EA60FF1027FEBF304ABDEB45B6DCDAB7DCEB4F35963430A641B7DCEB108E0000EC429F
S123EA8010A344270931A90200BDE64526F2EC483420E3E13402B6DCDAB7DCEB4F35B23598
S123EAA006FDDCD3EC46AE4810AE423436EC4034068102262D8C00002728A641B7DCEBECA6
S123EAC0441083FFFF2610BDE8103406EC46BDE6453506ED84ED44304ABDEB78B6DCDAB784
S123EAE0DCEBBEDCD610BEDCD8F6DCD54F6E9FDCD33506FDDCD33506ED40F7DCEB3536AF80
S123EB004810AF42ED46260510AF442005BDE645ED44EC482707EC44304ABDEB45B6DCDAA4
S123EB20B7DCEB20B234161F01A643E6423DBDF71C6F45E1432506E0436C4520F6E7461FC0
S123EB4010E744359634767FDCEC8D20ECE48DD5AE62BDF74D27137CDCECF6DCECC10527A1
S123EB603CC10326EBBDF74320E235F6B6DCEBC6073DC3DC501F033934767FDCEC8DEDEC34
S123EB80E48DA2AE62BDF75127E07CDCECF6DCECC1052709C10326EBBDF74320E2B7DCCB1E
S123EBA0357610B3DCDF26123402B6DCEBB1DCDE35022606BDE68B7FDCDDBDE5B44572728A
S123EBC06F7220616363657373696E6720626C6F636B2000BDE4E4BDE5B4206F6E20647267
S123EBE06976653A2000B6DCEB8B41BDE600BDE5EE8EEC0E7ADCCB270AA68026FCA6842685
S123EC00F33001BDE5DABDE5EE86097EE35F4469736B20666F726D6174206572726F7200F3
S123EC2042616420736563746F7200536563746F72206E6F7420666F756E64004469736B71
S123EC402077726974652070726F74656374656400004469736B2073797374656D20657234
S123EC60726F7200BDE689BDE465B7DCEBBDEB6CCC0203FDDCD3BDE54227288EF46EBDF12B
S123EC80293404BDE47735024D2605F7DCD320E64A2605F7DCD420DE4A81031022F6ACE7F9
S123ECA0C620D3BDE5B4466F726D617474696E672000B6DCEBBDF2768EF46E4FF6DCD3BDC3
S123ECC0F2B58601F6DCD4BDF2AFBDE5B40A0D4F6B3F2000BDE640BDE60084DF815910267F
S123ECE0F90CBDE5EEB6DCD3BDF73FB6DCD4B7DCD38EDE006F808CE00025F98EDE00CC003A
S123ED0000BDEB78BDE7788300011F89FDDCD1CC00027ADCD22B08BDEB78C3000120F37A43
S123ED20DCD32B08BDEB78C3000120F3CCFFFFED003002CC00027ADCD12B07ED81C30001B4
S123ED4020F434067DDCD42703FDDE00CCFFFFED8135067ADCD42B07C30001ED8120F4CC4E
S123ED60FFFFED1E8EDE00CC00017EEB78BDE465B7DCEBBDE4773410BDE48234108E000196
S123ED80BDE5422703BDE4771F1235103506BDEB4530890200C30001313F26F239BDE46565
S123EDA0B7DCEBBDE4773410BDE48234108E0001BDE5422703BDE4771F1235103506BDEB00
S123EDC07830890200C30001313F26F2398EDCB8C6136F805A26FB862AB7DCC0B7DCC83480
S123EDE020BDE416BDE54F35202703BDE3DD7EE71CFCE002FDDCD3BDE3D6BDE5422706BDFC
S123EE00E482BFDCD37EE78ABDE3DDBDE6BFBDE3C2262CA6881785101027FAF76F84BDE8FE
S123EE2007EC8813BDE645270F1083000027096F846F01BDE80720EC6F846F017EE807CCA8
S123EE400000BDE662BDE3892654BDE750A6881785102610BDE5E42050726F746563746516
S123EE606400203ABDE5B42028592F4E2F51293F00BDE640BDE600BDE5EE84DF8151272ED4
S123EE808159261A6F84BDE8073414FCDCDFFDDCCDEC88138D8EFCDCCDBDE66235143088C3
S123EEA0208CE000259FFCDCDFBDE6452694393410BDE909EC881335102018BDE3D6BDE959
S123EEC009EC88133406AE8815BDE5422703BDE4823506BDEB45308902003410BDE64535A4
S123EEE01026F039BFDCD3FDDCD1200FBDE3D6BDE482BFDCD3BDE477BFDCD17DDCD210277B
S123EF00F449BDE937EC8813FDDCCFBEDCD3BDEB7830890200BFDCD3FCDCCF7ADCD22719DF
S123EF20BDE64526E3BDE8103406FCDCCFBDE6453506ED84BDE80720CFBDE64527A5340629
S123EF40CCFFFFED84B7DCDD35067EEE24FCDCE927041F044F39BDE5E44E6F207375737072
S123EF60656E6465642070726F6772616D0010FEDCDB4F39BDF162F7DCCF7FDCD2CCFFFF7F
S123EF80FDDCD34F5F3406860DBDE600B6DCD2BDE5C07CDCD28D282608ACE423EAAFE42080
S123EFA0E6BDE5EE3506B3DCD3830001444CB7DCD2BDE54227BCBDE3D67EEEFBB7DCCF8D2E
S123EFC05B815326FA8D55813027F4813926038606398131263E8D4AB7DCD08003B7DCD151
S123EFE08D4034028D3C1F89ABE4BBDCD0B7DCD035021F0110B3DCD32403FDDCD38D23A74D
S123F00080BBDCD0B7DCD07ADCD126F18D14BBDCD04C271A8EF839860B7EE350F6DCCF7EAF
S123F020E6228D0B4848484834028D03AAE0398DEB80308109230A811125D98007811024D8
S123F040D339BDF162F7DCCFBDE639260C811B1027F59BF6DCCFBDE607F6DCCFBDE62726A1
S123F060E7BDE60020E28EF3E6BDE56BBDE54227778EF429586E95BDE416BDE542266934A6
S123F080368EDCA520108EDCAEBDE419BDE542265734368EDCAE108EDCB7C609A6A0A780D5
S123F0A05A26F935B6BDE3D6BDE6BF34108EF455BDF1295D260CBDE4821F103510ED88156E
S123F0C0200A5A26238D0D3510A78817BDE54226DA7EE8074F34168EF0F3BDE54F2712C6EF
S123F0E080A18027065426F97EE34BEAE4E7E420E63596525745443F3F3F3FBDE689BDE4BA
S123F10065B7DCEBBDEB6C3420BDF74335208EF48DBDF1293404BDE4771F10350281032212
S123F120C7E7C6BDE54226E639BDE56BA6A0813D26B639BDE4823410BDE4821F103510E723
S123F14080BDE54226F0398EF4BCBDF129C102249734048D0D35028EDC6CE786BDE542260F
S123F160E639BDE4778C00081024F4AE1F10395434048EF4B4BDE56B35025D270B5A10265D
S123F180F1C93414C6FF200334145F81031024F1BA8EDCA23086A684E7841A0435948EF3B8
S123F1A0E6BDE56B588EF43F6E958EDCA520038EDCAEA6808B41BDE600BDE5B43A5B00C6AC
S123F1C008A6802703BDE6005A26F6865DBDE6007EE5EEBDE3D6BDE6BFBDE5B446696C6535
S123F1E03A2000BDE750BDE5B40A0D4469736B20616464726573733D00EC8813BDE4E4BDB9
S123F200E5B42C204C6F616420616464726573733D2400EC8815BDE5ABBDE5B42C205072E4
S123F2206F74656374696F6E3D00E68817108EF0F3A6A0582403BDE6005D26F5BDE5EE10A2
S123F2408E0000EC88133121BDE64526F9BDE5B446696C6520636F6E7461696E7320001FA8
S123F26020BDE4E4BDE5E420626C6F636B2873292E0039BDE4653442BDEB6FBDE5B444726A
S123F2806976653A2000A6E48B41BDE600BDE5EE8EF48D4FE6408D1D8601E6418D11860241
S123F2A0E6428D0B8603E6438D0535427EE5EEBDE5B42C20008D08863DBDE6007EE4E33468
S123F2C0144CE6802AFCC47F270F4A26F5A6802B05BDE60020F74F3594860135948EF4BCAA
S123F2E04FF6DC6C8DCF8601F6DC6D8DC27EE5EE541F988EF3E68DC7863DBDE6008EDCA283
S123F300A685270286018EF4B48DB47EE5EEBDE4823410BDE5422703BDE482BFDCCD351001
S123F3201F10BDE5ABC610C5032603BDE5F8BDE5F8A680BDE5C05A26EEC604BDE5F85A2678
S123F340FA3010C610A68081202504817F2502862EBDE6005A26EEBDE5EEBDE6392705BC69
S123F360DCCD23BC4F39BDE465B7DCEB8D3EBDE5B444726976652000B6DCEB8B41BDE600CE
S123F380BDE5B4206861732000FCDCCFBDE4E4BDE5B420626C6F636B732C2000FCDCCDBDC9
S123F3A0E4E4BDE5E4206672656500393430BDE778FDDCCF1F024F5FFDDCCDC601FDDCCBF8
S123F3C0BDE662EC8126075CF3DCCDFDDCCD313F270D8CE00025ECFCDCCBC3000120DEFC6A
S123F3E0DCCD1A0435B0834D65737361676583446562756782547261636583444546415552
S123F4004C548253595354454D8246494C45824452495645834D454D4F525982434F4E5332
S123F4204F4C45824652454580F16FF16FF16FF077F086F0A5F0FBF133F147E34BE34BF29D
S123F440F0F2F0F2F0F1AAF1AFF1D3F273F30EF2DDF366E34B814C4F41445F4144445245D9
S123F46053538150524F54454354494F4E8081496E7465726C65617665814469726563746E
S123F4806F727920657874656E73696F6E81416464726573738143796C696E64657273811B
S123F4A0486561647381536563746F72732F547261636B80824F4646824F4E8081496E70B7
S123F4C07574814F7574707574803506FDDCE6B6DCE8393121B7DCCDBDE416BDE331CC40BA
S123F4E000ED816F80BDE6BFA6881785201027F422B6DCB7B7DCE1EC8813FDDCE24F5FFD68
S123F500DCE4FCDCE634067FDCE810BEDCCFBDF60D8EDC00BDF68127B1813F262DBDF681F6
S123F520803081092308C63FE7808B30201C1F89108EDCEDBDE5425A2B07BDE54F26FB204E
S123F540F3BDE54F27CEA78020F7A780810D26C4108EDC007DDCA42717862ABDE6001F21A9
S123F560A6802709810D2705BDE60020F3BDE5EEBDE542813F2659ECA1BDE542C14F270462
S123F580C1502616A6A02709810D2705BDE60020F3C14F2766BDE5EE2061C1462607B6DCC0
S123F5A0E8275820CBC15326035F2009C152260CBDE4771F10F1DCE8264120B4C145263E4A
S123F5C0BDE5422708BDE4771F10F7DCE87EF4CABEDCE4FCDCE23416B6DCE1340210FFDCC0
S123F5E0E6BDE26326014FB7DCE810FEDCE63502B7DCE13516FDDCE2BFDCE47EF511C13DAC
S123F6002707C1492618BDE50B8D0220EE34108EDCEDA6A0A7802704810D26F63590C14083
S123F62026083506FDDCE67EF4D8C1412613BDE4773001301F27C48D482792810D26F8203C
S123F640F2C14B2608BDE640B7DCE82031C13F262DBDE54227161F21A6A0810D270E81206D
S123F66026F6A68081202708A1A027F686FF200BA6A0810D2704812026F24FB7DCE87EF571
S123F680113410B6DCE1B7DCEBFCDCE410830200250DFCDCE2BDE645271EFDDCE24F5F8EBF
S123F6A0DE00308BC30001FDDCE43410FCDCE2BDE6623510A68081FF3590B6DC6C2020B685
S123F6C0DC6D201B3404F6DC6CB7DC6C20083404F6DC6DB7DC6D1F981A043584B7DCEB1A68
S123F6E004393440CEDC6E48ECC6200C3440CEDC6E4833C6ECC4AFC41A0435C03416A661C3
S123F700E6633D3406A662E6653DEBE4E7E4A663E6643DEBE4E7E435063264393416CC00B1
S123F720008E00111CFE69636962301F270D594910A3E425EFA3E41A0120EB32623590ADF2
S123F7409FDC946F446F456F466E9FDC8E6E9FDC906E9FDC926E9FDC966E9FDC986E9FDC26
S123F7609A6E9FDC9C6E9FDC9E6E9FDCA0535441525455502E2A00556E7265636F676E6921
S123F7807A656420636F6D6D616E64004F706572616E64206D697373696E67206F722069B6
S123F7A06E76616C69640046696C65206E6F7420666F756E640046696C6520616C726561F5
S123F7C064792065786973747300496E737566666963656E74206469736B20737061636513
S123F7E00046696C65206E6F74206F70656E20666F7220726561640046696C65206E6F742E
S123F800206F70656E20666F722077726974650046696C652070726F74656374696F6E2059
S123F82076696F6C6174696F6E00496E76616C69642064657669636500446F776E6C6F61C4
S123F8406420666F726D6174206572726F720084464F524D4154825245414482575249549A
S123F860458246494C4553824352454154458344454C455445824C4F414482534156458209
S123F88052554E8252455455524E825345548253484F5782444F574E4C4F414482434F4EA0
S123F8A04E45435480EC64ED6DED9DEDCDEDF1EE08EEBBEEECE28DEF4DF066F19EEF74F072
S123F8C042E242E50BE508E510E542E54FE4BCE482E477E3DDE3D6E329E381E384E416E402
S123F8E019E465F0D4E56BE389E3C2E5F8E5EEE5DAE5B4E5E4E4E4E5ABE5C0E5CEE73DE7F1
S123F90050F2BFE600E640E639E607E622E627F6BAF6BFF6C4F6CEE34BE6C3E913E91CE911
S123F92090E796E839E61AF014E6C9EEAFEEE4E872E94EE9D6E8DFE894E998E971E929EA09
S123F94025EA22EA73EA9FEAF1E6F8E6BFE909E937E78AEE0BF07FF091F6DCE645EED3E81C
S123F96010EE24E77BE778F3ACE662E807E699E69EE689EB6FEB6CEB25EB45EB78E71CE021
S123F98004F743F74DF751F73FE263E258F6E2F6ECF182F188F60DF6FCF71CE08AEFBC7FA2
S123F9A005008EFB62C667A680A7A05A26F9B605008603BDFB4386DFBDFB4386FFBDFB4321
S123F9C0CCAB3E8E00006F01ED0230048C010023F5860A8D02860D8E000020038E0100E6D0
S123F9E001C51027FAA784398E000020038E0100A60185082705A6841A043986FF39340293
S123FA00BDFA8BA6434CC6FF5CA0E42AFB34066F44BDFA946F456F466F62864DBDFB43A6BB
S123FA20454848AA40BDFB438602BDFB43A643A7E4BDFB438650BDFB4386E5BDFB43E644B5
S123FA40B604002AFBF70401E645B604002AFBF70401E646B604002AFBF70401EB61E1434A
S123FA6025046C62E662E746C602B604002AFBF704016AE426C88D706C45A645A142259600
S123FA806C44A644A14125893263398607BDFB43A640200C860FBDFB43A640BDFB43A64475
S123FAA0BDFB438608BDFB43BDFAE8F60400C50F26F1398DDF86468D61B604002AFB852057
S123FAC02723B60401A780313F26EE20188DC586458D47E680B604002AFB85202707F70436
S123FAE001313F26EEB605006FE28D1F1F898D1B2715108EFB5A4825062708312120F7A695
S123FB00A4A7E48D0626FCC5C03582B604002AFB84402705B604011CFB39108E02008D2397
S123FB20A6454848AA408D1BA6448D17A6458D13A6468D0F86028D0BA6434A8D06862A8DF0
S123FB400286FF3402B604002AFB854026063502B7040139B6040120EC3B030002000003DE
S123FB600401002802090000000128020900000002280109000000032801090000000101AA
S123FB80F9FBF9E8F9ED00000000000000000000F9FDF9D7F9DC000000000000000000000B
S123FBA0FA8BFAB3FACDF9FEE00BFB59FB59FB59FB59FB59FF0000004D41494E000000009E
S10CFBC00053595354454D000053
S111FFF2F75DF759F765F761F755F769E10810
S9030000FC
